001001631LE  008459025SANGUINO,VICTOR ANGEL         3140000000000201811000000000000    00000000000000000000000
001002741DNI 011282566VILLALBA,MARIA DEL CARMEN     3440000070280201811000000000000    00000000000000000000000
001002741DNI 011282566VILLALBA,MARIA DEL CARMEN     3140000271600201811000000000000    00000000000000000000000
001003111DNI 010582850PASSAMAI,VICTOR JOSE          3440000232605201811000000000000    00000000000000000000000
001003111DNI 010582850PASSAMAI,VICTOR JOSE          3140000294600201811000000000000    00000000000000000000000
001004031DNI 010405530CRISTOFARI,HECTOR RUBEN       3440000158244201811000000000000    00000000000000000000000
001004031DNI 010405530CRISTOFARI,HECTOR RUBEN       3140000173300201811000000000000    00000000000000000000000
001004651LC  006383729CHAILE,MARTA OFELIA           3440000043537201811000000000000    00000000000000000000000
001004651LC  006383729CHAILE,MARTA OFELIA           3140000263100201811000000000000    00000000000000000000000
001004652LC  006383729CHAILE,MARTA OFELIA           3140000058300201811000000000000    00000000000000000000000
001005831DNI 010125994FERREYRA,HECTOR RAUL          3440000052789201811000000000000    00000000000000000000000
001005831DNI 010125994FERREYRA,HECTOR RAUL          3140000174800201811000000000000    00000000000000000000000
001007301DNI 005095670TEJERINA, MARIA ELINA         3140000279300201811000000000000    00000000000000000000000
001007571DNI 011592022ZERPA,OSCAR ROQUE             3440000323585201811000000000000    00000000000000000000000
001007571DNI 011592022ZERPA,OSCAR ROQUE             3140000202700201811000000000000    00000000000000000000000
001008051DNI 008554364VELASCO,JORGE WILFREDO        3140000046900201811000000000000    00000000000000000000000
001008052DNI 008554364VELASCO,JORGE WILFREDO        3140000244300201811000000000000    00000000000000000000000
001008791LE  008294474PEREZ,RICARDO RAUL            3440000056024201811000000000000    00000000000000000000000
001008791LE  008294474PEREZ,RICARDO RAUL            3140000000000201811000000000000    00000000000000000000000
001008951DNI 010166291FERNANDEZ DE GALCERAN, LIDIA  3440000156300201811000000000000    00000000000000000000000
001008951DNI 010166291FERNANDEZ DE GALCERAN, LIDIA  3140000159700201811000000000000    00000000000000000000000
001008971LE  008049768GARCIA, MARIO GUIDO           3440000243263201811000000000000    00000000000000000000000
001008971LE  008049768GARCIA, MARIO GUIDO           3140000174800201811000000000000    00000000000000000000000
001009241LE  010005299DE ZUANI,ELIO RAFAEL          3440000120200201811000000000000    00000000000000000000000
001009241LE  010005299DE ZUANI,ELIO RAFAEL          3140000294600201811000000000000    00000000000000000000000
001009242LE  010005299DE ZUANI,ELIO RAFAEL          3140000058300201811000000000000    00000000000000000000000
001009271LE  007636026ESTRADA, RAFAEL SEGUNDO       3140000133100201811000000000000    00000000000000000000000
001009741DNI 010493933BENITEZ DE I벨GO, NILDA ELSA  3440000150016201811000000000000    00000000000000000000000
001009741DNI 010493933BENITEZ DE I벨GO, NILDA ELSA  3140000195800201811000000000000    00000000000000000000000
001010081DNI 010294655MUSSO de FALU, GRACIELA MARIA 3440000398432201811000000000000    00000000000000000000000
001010081DNI 010294655MUSSO de FALU, GRACIELA MARIA 3140000196500201811000000000000    00000000000000000000000
001010241LC  006383249ROCHA,ANA MARIA               3140000244300201811000000000000    00000000000000000000000
001010401DNI 008358553WAYLLACE, FORTUNATO PEDRO     3440000121394201811000000000000    00000000000000000000000
001010401DNI 008358553WAYLLACE, FORTUNATO PEDRO     3140000181700201811000000000000    00000000000000000000000
001010661DNI 010166082ECHAZU,RICARDO DANIEL         3140000187100201811000000000000    00000000000000000000000
001010791DNI 010993557VERA MESONES, ROSA DEL VALLE  3440000018533201811000000000000    00000000000000000000000
001010791DNI 010993557VERA MESONES, ROSA DEL VALLE  3140000263100201811000000000000    00000000000000000000000
001011291DNI 011283947MORALES,GRACIELA DEL VALLE    3440000222389201811000000000000    00000000000000000000000
001011291DNI 011283947MORALES,GRACIELA DEL VALLE    3140000445600201811000000000000    00000000000000000000000
001011321DNI 006383698ARMADA DE ROMANO,MARGARITA    3440000510605201811000000000000    00000000000000000000000
001011321DNI 006383698ARMADA DE ROMANO,MARGARITA    3140000429200201811000000000000    00000000000000000000000
001011631DNI 010203144ALEMAN, OSCAR EDUARDO         3440000064861201811000000000000    00000000000000000000000
001011631DNI 010203144ALEMAN, OSCAR EDUARDO         3140000154200201811000000000000    00000000000000000000000
001012051DNI 011081220GILLIERI,ROBERTO ALFREDO JOSE 3140000200800201811000000000000    00000000000000000000000
001012781DNI 010581795LOPEZ, CARLOS EDUARDO         3440000736045201811000000000000    00000000000000000000000
001012781DNI 010581795LOPEZ, CARLOS EDUARDO         3140000154200201811000000000000    00000000000000000000000
001013441DNI 012553749CAMACHO SEGOVIA,CIRO          3440000338585201811000000000000    00000000000000000000000
001013441DNI 012553749CAMACHO SEGOVIA,CIRO          3140000000000201811000000000000    00000000000000000000000
001013801DNI 006194290VIRGILI DE BINDA, ALICIA ELENA3440000069482201811000000000000    00000000000000000000000
001013801DNI 006194290VIRGILI DE BINDA, ALICIA ELENA3140000114900201811000000000000    00000000000000000000000
001014101DNI 006133402MOYA DE MONTEROS,MARIA C.     3440000085673201811000000000000    00000000000000000000000
001014101DNI 006133402MOYA DE MONTEROS,MARIA C.     3140000294600201811000000000000    00000000000000000000000
001014331DNI 005076214PANUSIERI, JORGE CAYETANO     3440000113284201811000000000000    00000000000000000000000
001014331DNI 005076214PANUSIERI, JORGE CAYETANO     3140000126600201811000000000000    00000000000000000000000
001014333DNI 005076214PANUSIERI, JORGE CAYETANO     3140000126600201811000000000000    00000000000000000000000
001014411DNI 011283355ALONSO, RICARDO NARCISO       3440000076039201811000000000000    00000000000000000000000
001014411DNI 011283355ALONSO, RICARDO NARCISO       3140000162200201811000000000000    00000000000000000000000
001014422DNI 011539499OLLER,SERGIO HORACIO CRISTOBAL3140000140200201811000000000000    00000000000000000000000
001014551LE  007850030SUAREZ,OSCAR MOISES           3440000141878201811000000000000    00000000000000000000000
001014551LE  007850030SUAREZ,OSCAR MOISES           3140000154200201811000000000000    00000000000000000000000
001014611DNI 011538149JIMENEZ GONZALEZ, RICARDO     3140000154200201811000000000000    00000000000000000000000
001014621DNI 008554071VITULLI, NESTOR VALENTIN      3440000001912201811000000000000    00000000000000000000000
001014621DNI 008554071VITULLI, NESTOR VALENTIN      3140000142100201811000000000000    00000000000000000000000
001014721DNI 011283301PLAZA, GLORIA DEL CARMEN      3140000252700201811000000000000    00000000000000000000000
001014892LE  008387506CLAROS,VICTOR HUGO            3440000363967201811000000000000    00000000000000000000000
001014892LE  008387506CLAROS,VICTOR HUGO            3140000481200201811000000000000    00000000000000000000000
001015281LE  008554253VICCO,NESTOR FRANCISCO        3440000092192201811000000000000    00000000000000000000000
001015281LE  008554253VICCO,NESTOR FRANCISCO        3140000122400201811000000000000    00000000000000000000000
001015282LE  008554253VICCO,NESTOR FRANCISCO        3140000067900201811000000000000    00000000000000000000000
001015601LC  006194204BASSANI DE AGOSTINI,ALICIA    3440000063000201811000000000000    00000000000000000000000
001015601LC  006194204BASSANI DE AGOSTINI,ALICIA    3140000294600201811000000000000    00000000000000000000000
001015771DNI 010579655ROBIN, JUAN HERMAN            3440000418620201811000000000000    00000000000000000000000
001015771DNI 010579655ROBIN, JUAN HERMAN            3140000244300201811000000000000    00000000000000000000000
001015781LE  007850695MARTIN,JUAN CARLOS            3440001134257201811000000000000    00000000000000000000000
001015781LE  007850695MARTIN,JUAN CARLOS            3140000138800201811000000000000    00000000000000000000000
001015821DNI 011282722LOPEZ, MARIA JULIA            3440000045386201811000000000000    00000000000000000000000
001015821DNI 011282722LOPEZ, MARIA JULIA            3140000195800201811000000000000    00000000000000000000000
001015971DNI 012712390RIVERO,VICTOR MANUEL          3440000126215201811000000000000    00000000000000000000000
001015971DNI 012712390RIVERO,VICTOR MANUEL          3140000217000201811000000000000    00000000000000000000000
001016141DNI 012220872NAHARRO, JOSE MIGUEL          3440000343075201811000000000000    00000000000000000000000
001016141DNI 012220872NAHARRO, JOSE MIGUEL          3140000216100201811000000000000    00000000000000000000000
001016841DNI 012959865ARZALAN,TERESITA DEL HUERTO   3440000687940201811000000000000    00000000000000000000000
001016841DNI 012959865ARZALAN,TERESITA DEL HUERTO   3140000000000201811000000000000    00000000000000000000000
001017011DNI 010004755VALLE,ERNESTO FLORENCIO       3440000054190201811000000000000    00000000000000000000000
001017011DNI 010004755VALLE,ERNESTO FLORENCIO       3140000105900201811000000000000    00000000000000000000000
001017431DNI 011592344ARREDES, MIRIAM DEL HUERTO    3440000564716201811000000000000    00000000000000000000000
001017431DNI 011592344ARREDES, MIRIAM DEL HUERTO    3140000230600201811000000000000    00000000000000000000000
001017451DNI 011657154BONINI,NORBERTO ALEJANDRO     3440000058378201811000000000000    00000000000000000000000
001017451DNI 011657154BONINI,NORBERTO ALEJANDRO     3140000273400201811000000000000    00000000000000000000000
001017551DNI 011282679BURGOS DE PARRA,GLORIA DEL V. 3440000331716201811000000000000    00000000000000000000000
001017551DNI 011282679BURGOS DE PARRA,GLORIA DEL V. 3140000234800201811000000000000    00000000000000000000000
001017571DNI 011539900SANDOVAL,ALEJANDRO HECTOR     3440000188926201811000000000000    00000000000000000000000
001017571DNI 011539900SANDOVAL,ALEJANDRO HECTOR     3140000234800201811000000000000    00000000000000000000000
001017771LE  007850738LLIMOS,HUGO IGNACIO           3440000594787201811000000000000    00000000000000000000000
001017771LE  007850738LLIMOS,HUGO IGNACIO           3140000445600201811000000000000    00000000000000000000000
001017791DNI 010870947MORALES,RUBEN EDUARDO         3440000049513201811000000000000    00000000000000000000000
001017791DNI 010870947MORALES,RUBEN EDUARDO         3140000133100201811000000000000    00000000000000000000000
001017941DNI 011080568MARCUZZI, JORGE JUAN          3140000154200201811000000000000    00000000000000000000000
001018321DNI 092302521GABIN DA SILVA,ALFREDO JOSE   3440000072146201811000000000000    00000000000000000000000
001018321DNI 092302521GABIN DA SILVA,ALFREDO JOSE   3140000154200201811000000000000    00000000000000000000000
001018501DNI 013258632MARTINEZ DE JIMENEZ, VIRGINIA 3440000000300201811000000000000    00000000000000000000000
001018501DNI 013258632MARTINEZ DE JIMENEZ, VIRGINIA 3140000263100201811000000000000    00000000000000000000000
001018731DNI 011834963FERNANDEZ, DORA DEL VALLE     3440000476805201811000000000000    00000000000000000000000
001018731DNI 011834963FERNANDEZ, DORA DEL VALLE     3140000234800201811000000000000    00000000000000000000000
001018821DNI 012281365ZAPATA,SILVIA RAQUEL          3440000076039201811000000000000    00000000000000000000000
001018821DNI 012281365ZAPATA,SILVIA RAQUEL          3140000216100201811000000000000    00000000000000000000000
001018822DNI 012281365ZAPATA,SILVIA RAQUEL          3140000054200201811000000000000    00000000000000000000000
001018871DNI 010581775MORALES, PETRONA              3440000088344201811000000000000    00000000000000000000000
001018871DNI 010581775MORALES, PETRONA              3140000234800201811000000000000    00000000000000000000000
001019011DNI 012790721MENA DE MENDEZ, NORMA CECILIA 3140000133100201811000000000000    00000000000000000000000
001019061DNI 011080995GUTIERREZ,JUANA BEATRIZ       3440000060133201811000000000000    00000000000000000000000
001019061DNI 011080995GUTIERREZ,JUANA BEATRIZ       3140000295300201811000000000000    00000000000000000000000
001019181DNI 018647298CASTRO VIDAURRE,EMMEL TEDI    3440000009372201811000000000000    00000000000000000000000
001019181DNI 018647298CASTRO VIDAURRE,EMMEL TEDI    3140000216100201811000000000000    00000000000000000000000
001019191DNI 010451487LOPEZ DIAZ, RAFAEL            3440000235124201811000000000000    00000000000000000000000
001019191DNI 010451487LOPEZ DIAZ, RAFAEL            3140000110000201811000000000000    00000000000000000000000
001019501DNI 010020069ZAPATER DE DEL CASTILLO,MARIA 3440000288960201811000000000000    00000000000000000000000
001019501DNI 010020069ZAPATER DE DEL CASTILLO,MARIA 3140000223400201811000000000000    00000000000000000000000
001019502DNI 010020069ZAPATER DE DEL CASTILLO,MARIA 3140000063300201811000000000000    00000000000000000000000
001019631DNI 011283370GUITIAN,JESUS RICARDO         3440000162486201811000000000000    00000000000000000000000
001019631DNI 011283370GUITIAN,JESUS RICARDO         3140000210000201811000000000000    00000000000000000000000
001019651LC  006383255MUSSO DE DIP,HAYDEE ELENA     3440000462626201811000000000000    00000000000000000000000
001019651LC  006383255MUSSO DE DIP,HAYDEE ELENA     3140000252700201811000000000000    00000000000000000000000
001019711LE  008182888TORRES,JORGE ERNESTO          3140000133100201811000000000000    00000000000000000000000
001019901DNI 010993056JARAMILLO,PABLO NICOLAS       3440000246520201811000000000000    00000000000000000000000
001019901DNI 010993056JARAMILLO,PABLO NICOLAS       3140000203700201811000000000000    00000000000000000000000
001020201DNI 012185777AGUILERA, NESTOR GUILLERMO    3440000000214201811000000000000    00000000000000000000000
001020201DNI 012185777AGUILERA, NESTOR GUILLERMO    3140000154200201811000000000000    00000000000000000000000
001020271DNI 012690429BLASCO,DANIEL RICARDO         3140000124800201811000000000000    00000000000000000000000
001020391DNI 013258746ALURRALDE,PABLO HORACIO       3140000139800201811000000000000    00000000000000000000000
001020991DNI 013845852CAZON NARVAEZ,FERNANDO ISAAC  3440000060141201811000000000000    00000000000000000000000
001020991DNI 013845852CAZON NARVAEZ,FERNANDO ISAAC  3140000223400201811000000000000    00000000000000000000000
001021161DNI 012959773LOPEZ, GRACIELA ISABEL        3440000436209201811000000000000    00000000000000000000000
001021161DNI 012959773LOPEZ, GRACIELA ISABEL        3140000308900201811000000000000    00000000000000000000000
001021181DNI 012409872SARAPURA,ANTONIO ESTEBAN      3440000124625201811000000000000    00000000000000000000000
001021181DNI 012409872SARAPURA,ANTONIO ESTEBAN      3140000195200201811000000000000    00000000000000000000000
001021201DNI 012281396MIECIELI,ARMANDO ROGELIO      3440000252012201811000000000000    00000000000000000000000
001021201DNI 012281396MIECIELI,ARMANDO ROGELIO      3140000171800201811000000000000    00000000000000000000000
001021261DNI 010516195ALVAREZ, LUIS ANDRES          3440000324709201811000000000000    00000000000000000000000
001021261DNI 010516195ALVAREZ, LUIS ANDRES          3140000154200201811000000000000    00000000000000000000000
001021391DNI 012957450VELASQUEZ,CARLOS ANDRES       3440000139256201811000000000000    00000000000000000000000
001021391DNI 012957450VELASQUEZ,CARLOS ANDRES       3140000170200201811000000000000    00000000000000000000000
001021611DNI 010413105YAMPOTIS, JOSE ANTONIO        3440000264344201811000000000000    00000000000000000000000
001021611DNI 010413105YAMPOTIS, JOSE ANTONIO        3140000133500201811000000000000    00000000000000000000000
001021612DNI 010413105YAMPOTIS, JOSE ANTONIO        3140000133500201811000000000000    00000000000000000000000
001021691DNI 008036668SASTRE, CARLOS ALBERTO        3140000149300201811000000000000    00000000000000000000000
001021921DNI 016750012MARTINEZ, OLGA GLADYS         3440000110157201811000000000000    00000000000000000000000
001021921DNI 016750012MARTINEZ, OLGA GLADYS         3140000263100201811000000000000    00000000000000000000000
001021922DNI 016750012MARTINEZ, OLGA GLADYS         3140000086800201811000000000000    00000000000000000000000
001022021DNI 011538768CASO,RICARDO ALBERTO          3440000441819201811000000000000    00000000000000000000000
001022021DNI 011538768CASO,RICARDO ALBERTO          3140000205400201811000000000000    00000000000000000000000
001022061DNI 013520749BERTA,DORA DEL CARMEN         3440000012240201811000000000000    00000000000000000000000
001022061DNI 013520749BERTA,DORA DEL CARMEN         3140000445600201811000000000000    00000000000000000000000
001022091DNI 011834541CARO,ROBERTO ADOLFO           3440000231425201811000000000000    00000000000000000000000
001022091DNI 011834541CARO,ROBERTO ADOLFO           3140000196100201811000000000000    00000000000000000000000
001022141DNI 010167477MENDEZ,JULIO RAUL             3140000206700201811000000000000    00000000000000000000000
001022161DNI 010993383FERNANDEZ, JUAN CARLOS        3440000271893201811000000000000    00000000000000000000000
001022161DNI 010993383FERNANDEZ, JUAN CARLOS        3140000187100201811000000000000    00000000000000000000000
001022251DNI 017582197KWOK DE HIDALGO, LEUNG HUNG   3440000024248201811000000000000    00000000000000000000000
001022251DNI 017582197KWOK DE HIDALGO, LEUNG HUNG   3140000216100201811000000000000    00000000000000000000000
001022351DNI 012119230ARIAS, MIRTA NOEMI            3440000001951201811000000000000    00000000000000000000000
001022351DNI 012119230ARIAS, MIRTA NOEMI            3140000230300201811000000000000    00000000000000000000000
001022352DNI 012119230ARIAS, MIRTA NOEMI            3140000066800201811000000000000    00000000000000000000000
001022391DNI 013193379BARRANTES MANTILLA, ALEJANDRO 3140000133100201811000000000000    00000000000000000000000
001022411DNI 010551590GRAMAJO,MARIA CECILIA         3440000369029201811000000000000    00000000000000000000000
001022411DNI 010551590GRAMAJO,MARIA CECILIA         3140000263100201811000000000000    00000000000000000000000
001022471DNI 013346905PUCA, OSCAR ROBERTO           3440000146660201811000000000000    00000000000000000000000
001022471DNI 013346905PUCA, OSCAR ROBERTO           3140000190400201811000000000000    00000000000000000000000
001022551DNI 013346142VICENTE DE CHAVEZ DIAZ, MARIA 3140000162200201811000000000000    00000000000000000000000
001022661DNI 013701471SOSA, MARCELA BEATRIZ         3440000090129201811000000000000    00000000000000000000000
001022661DNI 013701471SOSA, MARCELA BEATRIZ         3140000294600201811000000000000    00000000000000000000000
001022671DNI 012959123ARCIENAGA MORALES, ANTONIO A. 3140000181800201811000000000000    00000000000000000000000
001022801DNI 011539231PIQUIN, ENRIQUE JOSE          3140000154200201811000000000000    00000000000000000000000
001022971DNI 012712042PEREZ DE OSHE,LILIANA ASUNCION3440000277561201811000000000000    00000000000000000000000
001022971DNI 012712042PEREZ DE OSHE,LILIANA ASUNCION3140000220700201811000000000000    00000000000000000000000
001022972DNI 012712042PEREZ DE OSHE,LILIANA ASUNCION3140000055300201811000000000000    00000000000000000000000
001022981DNI 012712964MOYA, MARIA DE LAS MERCEDES   3440000219489201811000000000000    00000000000000000000000
001022981DNI 012712964MOYA, MARIA DE LAS MERCEDES   3140000273400201811000000000000    00000000000000000000000
001023001DNI 012649242COLLIVADINO DE RUIZ,CAROLINA N3440000022023201811000000000000    00000000000000000000000
001023001DNI 012649242COLLIVADINO DE RUIZ,CAROLINA N3140000223400201811000000000000    00000000000000000000000
001023151DNI 012790917FARFAN T.DE SHAM, ELSA MONICA 3440000110770201811000000000000    00000000000000000000000
001023151DNI 012790917FARFAN T.DE SHAM, ELSA MONICA 3140000294600201811000000000000    00000000000000000000000
001023262DNI 013844346VILLARREAL CANTIZANA, CLAUDIA 3440000407857201811000000000000    00000000000000000000000
001023262DNI 013844346VILLARREAL CANTIZANA, CLAUDIA 3140000187100201811000000000000    00000000000000000000000
001023263DNI 013844346VILLARREAL CANTIZANA, CLAUDIA 3140000054200201811000000000000    00000000000000000000000
001023291DNI 011081966ROVALETTI,JORGE ALFREDO       3440000002522201811000000000000    00000000000000000000000
001023291DNI 011081966ROVALETTI,JORGE ALFREDO       3140000325000201811000000000000    00000000000000000000000
001023551DNI 008387956FALU, RICARDO MANUEL          3440000058794201811000000000000    00000000000000000000000
001023551DNI 008387956FALU, RICARDO MANUEL          3140000177400201811000000000000    00000000000000000000000
001023581DNI 012281353QUIPILDOR,DANIEL PEDRO        3440000194831201811000000000000    00000000000000000000000
001023581DNI 012281353QUIPILDOR,DANIEL PEDRO        3140000209400201811000000000000    00000000000000000000000
001023591DNI 012959243GARNICA, MARIA ANGELICA       3440000310000201811000000000000    00000000000000000000000
001023591DNI 012959243GARNICA, MARIA ANGELICA       3140000248400201811000000000000    00000000000000000000000
001023641DNI 016734782MERCADO,MARIA CECILIA         3440000140512201811000000000000    00000000000000000000000
001023641DNI 016734782MERCADO,MARIA CECILIA         3140000216100201811000000000000    00000000000000000000000
001023801DNI 018728320ESTRADA VELASQUEZ,AUGUSTO A.  3440000144086201811000000000000    00000000000000000000000
001023801DNI 018728320ESTRADA VELASQUEZ,AUGUSTO A.  3140000244300201811000000000000    00000000000000000000000
001023802DNI 018728320ESTRADA VELAZQUEZ, AUGUSTO A. 3140000054200201811000000000000    00000000000000000000000
001023803DNI 018728320ESTRADA VELAZQUEZ, AUGUSTO A. 3140000053800201811000000000000    00000000000000000000000
001023812DNI 012308591CASADO, EDUARDO ZENON         3140000273400201811000000000000    00000000000000000000000
001023831DNI 012959347ALARCON,HECTOR EDUARDO        3440000152817201811000000000000    00000000000000000000000
001023831DNI 012959347ALARCON,HECTOR EDUARDO        3140000251200201811000000000000    00000000000000000000000
001023921DNI 011494684REARTE, ELVIRA DEL CARMEN     3440000666068201811000000000000    00000000000000000000000
001023921DNI 011494684REARTE, ELVIRA DEL CARMEN     3140000266500201811000000000000    00000000000000000000000
001024121DNI 014709260MARTINEZ, IRMA ZULEMA         3440000112602201811000000000000    00000000000000000000000
001024121DNI 014709260MARTINEZ, IRMA ZULEMA         3140000093800201811000000000000    00000000000000000000000
001024122DNI 014709260MARTINEZ, IRMA ZULEMA         3140000108300201811000000000000    00000000000000000000000
001024125DNI 014709260MARTINEZ, IRMA ZULEMA         3140000053800201811000000000000    00000000000000000000000
001024251DNI 011834713RUSSO ABDO,SALVADOR RAFAEL    3440000009044201811000000000000    00000000000000000000000
001024251DNI 011834713RUSSO ABDO,SALVADOR RAFAEL    3140000154200201811000000000000    00000000000000000000000
001024271DNI 010167916COLLAVINO, NORMA GRACIELA     3440000022088201811000000000000    00000000000000000000000
001024271DNI 010167916COLLAVINO, NORMA GRACIELA     3140000252700201811000000000000    00000000000000000000000
001024501DNI 012860012EGUEZ, HERMOSINDA             3440000035217201811000000000000    00000000000000000000000
001024501DNI 012860012EGUEZ, HERMOSINDA             3140000142000201811000000000000    00000000000000000000000
001024502DNI 012860012EGUEZ, HERMOSINDA             3140000056000201811000000000000    00000000000000000000000
001024503DNI 012860012EGUEZ, HERMOSINDA             3140000056000201811000000000000    00000000000000000000000
001024504DNI 012860012EGUEZ, HERMOSINDA             3140000069200201811000000000000    00000000000000000000000
001024521DNI 012220844JAKULICA,RICARDO              3440000406206201811000000000000    00000000000000000000000
001024521DNI 012220844JAKULICA,RICARDO              3140000174800201811000000000000    00000000000000000000000
001024561DNI 012407797ZAPANA,ALBERTO                3140000229300201811000000000000    00000000000000000000000
001024601DNI 013346822CHA USANDIVARAS,ESTEBAN       3440000000300201811000000000000    00000000000000000000000
001024601DNI 013346822CHA USANDIVARAS,ESTEBAN       3140000174800201811000000000000    00000000000000000000000
001024621DNI 013414623HURTADO BARROSO,SILVIA SUSAN H3440000039002201811000000000000    00000000000000000000000
001024621DNI 013414623HURTADO BARROSO,SILVIA SUSAN H3140000000000201811000000000000    00000000000000000000000
001024622DNI 013414623HURTADO BARROSO,SILVIA SUSAN H3140000094700201811000000000000    00000000000000000000000
001024641DNI 010581667LEVIN, DANIEL DAVID           3140000154200201811000000000000    00000000000000000000000
001024661DNI 014489477NIEVA MACKAN, INES ELIZABETH  3440000375270201811000000000000    00000000000000000000000
001024661DNI 014489477NIEVA MACKAN, INES ELIZABETH  3140000198100201811000000000000    00000000000000000000000
001024702DNI 011060635CASADO, HECTOR RAUL           3140000154200201811000000000000    00000000000000000000000
001024801DNI 012132398CRUZ,HUGO JESUS               3440001732747201811000000000000    00000000000000000000000
001024801DNI 012132398CRUZ,HUGO JESUS               3140000198100201811000000000000    00000000000000000000000
001024841DNI 010582629GASPAR,ROBERTO GERARDO        3440000099475201811000000000000    00000000000000000000000
001024841DNI 010582629GASPAR,ROBERTO GERARDO        3140000134900201811000000000000    00000000000000000000000
001024911DNI 010993636PAGANO FERNANDEZ, CARLOS MARIA3440000010876201811000000000000    00000000000000000000000
001024911DNI 010993636PAGANO FERNANDEZ, CARLOS MARIA3140000189900201811000000000000    00000000000000000000000
001025031DNI 014488325ALURRALDE DE ROJO,FLORENCIA M.3440000099529201811000000000000    00000000000000000000000
001025031DNI 014488325ALURRALDE DE ROJO,FLORENCIA M.3140000223400201811000000000000    00000000000000000000000
001025131DNI 012692750TEJERINA,HORACIO SANTIAGO     3440000239135201811000000000000    00000000000000000000000
001025131DNI 012692750TEJERINA,HORACIO SANTIAGO     3140000108300201811000000000000    00000000000000000000000
001025132DNI 012692750TEJERINA, HORACIO SANTIAGO    3140000054200201811000000000000    00000000000000000000000
001025141DNI 012959930GILOBERT DE CUGAT, MERCEDES A.3440000542722201811000000000000    00000000000000000000000
001025141DNI 012959930GILOBERT DE CUGAT, MERCEDES A.3140000193400201811000000000000    00000000000000000000000
001025142DNI 012959930GILOBERT DE CUGAT, MERCEDES A.3140000056000201811000000000000    00000000000000000000000
001025201DNI 013383079DI CARLO, BERTA MERCEDES      3440000300743201811000000000000    00000000000000000000000
001025201DNI 013383079DI CARLO, BERTA MERCEDES      3140000232600201811000000000000    00000000000000000000000
001025202DNI 013383079DI CARLO, BERTA MERCEDES      3140000058300201811000000000000    00000000000000000000000
001025241DNI 014061693DAZ,MIRTA ELIZABETH           3440000241247201811000000000000    00000000000000000000000
001025241DNI 014061693DAZ,MIRTA ELIZABETH           3140000429200201811000000000000    00000000000000000000000
001025251DNI 012553672SERAPIO, LEONARDO             3440000195440201811000000000000    00000000000000000000000
001025251DNI 012553672SERAPIO, LEONARDO             3140000047800201811000000000000    00000000000000000000000
001025252DNI 012553672SERAPIO, LEONARDO             3140000051300201811000000000000    00000000000000000000000
001025291DNI 013414028ADAMO, CARMELA                3440000380476201811000000000000    00000000000000000000000
001025291DNI 013414028ADAMO, CARMELA                3140000046900201811000000000000    00000000000000000000000
001025292DNI 013414028ADAMO, CARMELA                3140000216100201811000000000000    00000000000000000000000
001025311DNI 014709118GARZON, JORGE EDUARDO         3440000007157201811000000000000    00000000000000000000000
001025311DNI 014709118GARZON, JORGE EDUARDO         3140000187100201811000000000000    00000000000000000000000
001025331DNI 013845904GONZALEZ DE GUZMAN,SUSANA F.  3440000420070201811000000000000    00000000000000000000000
001025331DNI 013845904GONZALEZ DE GUZMAN,SUSANA F.  3140000292000201811000000000000    00000000000000000000000
001025401DNI 011568278IBARRA,JORGE ALBERTO          3440000345080201811000000000000    00000000000000000000000
001025401DNI 011568278IBARRA,JORGE ALBERTO          3140000193300201811000000000000    00000000000000000000000
001025491DNI 014176659CARMONA, ABEL                 3140000108300201811000000000000    00000000000000000000000
001025492DNI 014176659CARMONA, ABEL                 3140000135800201811000000000000    00000000000000000000000
001025511DNI 014298062ASTORGA, ANGELICA ELVIRA      3440000086186201811000000000000    00000000000000000000000
001025511DNI 014298062ASTORGA, ANGELICA ELVIRA      3140000273400201811000000000000    00000000000000000000000
001025512DNI 014298062ASTORGA, ANGELICA ELVIRA      3140000046900201811000000000000    00000000000000000000000
001025521DNI 014176771FIGUEROA, VICTOR DANIEL       3140000160900201811000000000000    00000000000000000000000
001025541DNI 011943333RIERA,GLORIA LILIAN           3440000486793201811000000000000    00000000000000000000000
001025541DNI 011943333RIERA,GLORIA LILIAN           3140000229300201811000000000000    00000000000000000000000
001025581DNI 012220416MENDEZ DE ALMAZAN,MARIA C.    3140000090600201811000000000000    00000000000000000000000
001025601DNI 011449293SEGGIARO, RAUL EUDOCIO        3440000807781201811000000000000    00000000000000000000000
001025601DNI 011449293SEGGIARO, RAUL EUDOCIO        3140000162400201811000000000000    00000000000000000000000
001025611DNI 011081337GALLARDO, EDUARDO FELIPE      3140000046900201811000000000000    00000000000000000000000
001025612DNI 011081337GALLARDO, EDUARDO FELIPE      3440000002900201811000000000000    00000000000000000000000
001025612DNI 011081337GALLARDO, EDUARDO FELIPE      3140000216100201811000000000000    00000000000000000000000
001025871DNI 012553834LOZANO,LELIA BEATRIZ          3140000223400201811000000000000    00000000000000000000000
001026031DNI 013275936SANCHEZ,MARIA CRISTINA        3440000027500201811000000000000    00000000000000000000000
001026031DNI 013275936SANCHEZ,MARIA CRISTINA        3140000232600201811000000000000    00000000000000000000000
001026051DNI 013382081NICALA,MIGUEL ANGEL           3140000073000201811000000000000    00000000000000000000000
001026192DNI 011538793ARAMAYO, DURBAL HUMBERTO      3140000202300201811000000000000    00000000000000000000000
001026193DNI 011538793ARAMAYO, DURBAL HUMBERTO      3140000451400201811000000000000    00000000000000000000000
001026221DNI 012211273MOSA, SERGIO GUSTAVO          3440000216083201811000000000000    00000000000000000000000
001026221DNI 012211273MOSA, SERGIO GUSTAVO          3140000294600201811000000000000    00000000000000000000000
001026241DNI 012211188TERAN DE CAYO, MIRTA AIDA     3140000154200201811000000000000    00000000000000000000000
001026271DNI 092196051ESPINOZA VARGAS,FELIX JOSE    3440000066640201811000000000000    00000000000000000000000
001026271DNI 092196051ESPINOZA VARGAS,FELIX JOSE    3140000187100201811000000000000    00000000000000000000000
001026273DNI 092196051ESPINOZA VARGAS,FELIX JOSE    3140000046900201811000000000000    00000000000000000000000
001026291DNI 013347286NU벤Z, VIRGILIO               3440000109054201811000000000000    00000000000000000000000
001026291DNI 013347286NU벤Z, VIRGILIO               3140000220700201811000000000000    00000000000000000000000
001026292DNI 013347286NU벤Z, VIRGILIO               3140000055300201811000000000000    00000000000000000000000
001026341DNI 014110120CANAVIDES,ANDRES GERARDO      3440001011594201811000000000000    00000000000000000000000
001026341DNI 014110120CANAVIDES,ANDRES GERARDO      3140000167000201811000000000000    00000000000000000000000
001026441DNI 005784433PAULI, PAULINA                3140000222000201811000000000000    00000000000000000000000
001026541DNI 011944190RODRIGUEZ,NORMANDO ANGEL      3440000361125201811000000000000    00000000000000000000000
001026541DNI 011944190RODRIGUEZ,NORMANDO ANGEL      3140000204300201811000000000000    00000000000000000000000
001026571DNI 013729017CORREA, RUBEN EMILIO          3440000419848201811000000000000    00000000000000000000000
001026571DNI 013729017CORREA, RUBEN EMILIO          3140000429200201811000000000000    00000000000000000000000
001026631DNI 014670057GOMEZ DE RODRIGUEZ, MARY DEL S3440000523994201811000000000000    00000000000000000000000
001026631DNI 014670057GOMEZ DE RODRIGUEZ, MARY DEL S3140000245700201811000000000000    00000000000000000000000
001026781DNI 014865268DAVIES, DORA ANA              3440000006120201811000000000000    00000000000000000000000
001026781DNI 014865268DAVIES, DORA ANA              3140000396400201811000000000000    00000000000000000000000
001026791DNI 014488151BARBERA, MONICA               3440000004000201811000000000000    00000000000000000000000
001026791DNI 014488151BARBERA, MONICA               3140000055300201811000000000000    00000000000000000000000
001026792DNI 014488151BARBERA, MONICA               3140000220700201811000000000000    00000000000000000000000
001026851LE  007850327SOLER,ROGER HERNAN            3440000135640201811000000000000    00000000000000000000000
001026851LE  007850327SOLER,ROGER HERNAN            3140000216100201811000000000000    00000000000000000000000
001026911DNI 012553551ASENSIO, NESTOR GUSTAVO       3140000133100201811000000000000    00000000000000000000000
001027041DNI 012409073ALLEMAND DE C.,ELIZABETH      3440000376377201811000000000000    00000000000000000000000
001027041DNI 012409073ALLEMAND DE C.,ELIZABETH      3140000216100201811000000000000    00000000000000000000000
001027141DNI 013414642BAYON DE TORENA, NELIDA A.    3140000232600201811000000000000    00000000000000000000000
001027142DNI 013414642BAYON DE TORENA, NELIDA A.    3140000058300201811000000000000    00000000000000000000000
001027151DNI 011943462CARDON,LUIS                   3440000231932201811000000000000    00000000000000000000000
001027151DNI 011943462CARDON,LUIS                   3140000294600201811000000000000    00000000000000000000000
001027152DNI 011943462CARDON,LUIS                   3140000065900201811000000000000    00000000000000000000000
001027211DNI 014865512ETCHEVERRY, ANGELA VIRGINIA   3440000108995201811000000000000    00000000000000000000000
001027211DNI 014865512ETCHEVERRY, ANGELA VIRGINIA   3140000232600201811000000000000    00000000000000000000000
001027212DNI 014865512ETCHEVERRY, ANGELA VIRGINIA   3140000073800201811000000000000    00000000000000000000000
001027241DNI 016308259QUIROGA, ELIZABETH NOEMI G.   3440000181632201811000000000000    00000000000000000000000
001027241DNI 016308259QUIROGA, ELIZABETH NOEMI G.   3140000133100201811000000000000    00000000000000000000000
001027321DNI 014453365FINETTI, MARIELA              3440000120558201811000000000000    00000000000000000000000
001027321DNI 014453365FINETTI, MARIELA              3140000396400201811000000000000    00000000000000000000000
001027331DNI 012409315LIENDRO,JOSE LUIS             3440000037500201811000000000000    00000000000000000000000
001027331DNI 012409315LIENDRO,JOSE LUIS             3140000105900201811000000000000    00000000000000000000000
001027381DNI 010451782COSTA LAMBERTO,LUIS           3140000105100201811000000000000    00000000000000000000000
001027391DNI 014312864ACOSTA, DELICIA ESTER         3440000205558201811000000000000    00000000000000000000000
001027391DNI 014312864ACOSTA, DELICIA ESTER         3140000263100201811000000000000    00000000000000000000000
001027441DNI 012958987D'ANGELO DE TOIGO,MIRIAM E.   3440000514766201811000000000000    00000000000000000000000
001027441DNI 012958987D'ANGELO DE TOIGO,MIRIAM E.   3140000187100201811000000000000    00000000000000000000000
001027442DNI 012958987D'ANGELO DE TOIGO,MIRIAM E.   3140000054200201811000000000000    00000000000000000000000
001027451DNI 013844512PEREZ DE GOMEZ,MARCELA P.     3440000392614201811000000000000    00000000000000000000000
001027451DNI 013844512PEREZ DE GOMEZ,MARCELA P.     3140000207200201811000000000000    00000000000000000000000
001027461DNI 013037696ALVAREZ,ROSA NOEMI            3440000054833201811000000000000    00000000000000000000000
001027461DNI 013037696ALVAREZ,ROSA NOEMI            3140000341900201811000000000000    00000000000000000000000
001027501DNI 014709523RAMOS,JUANA LUCRECIA          3440000442720201811000000000000    00000000000000000000000
001027501DNI 014709523RAMOS,JUANA LUCRECIA          3140000226600201811000000000000    00000000000000000000000
001027502DNI 014709523RAMOS,JUANA LUCRECIA          3140000201400201811000000000000    00000000000000000000000
001027511DNI 011081861MACCHI,AZUCENA TERESA         3440000045208201811000000000000    00000000000000000000000
001027511DNI 011081861MACCHI,AZUCENA TERESA         3140000159700201811000000000000    00000000000000000000000
001027551DNI 013414589BELLONE DE OSAN,MARIA INES    3440000358524201811000000000000    00000000000000000000000
001027551DNI 013414589BELLONE DE OSAN,MARIA INES    3140000264800201811000000000000    00000000000000000000000
001027601DNI 014488289PARENTIS DE GAUFFIN, MONICA L.3440000066772201811000000000000    00000000000000000000000
001027601DNI 014488289PARENTIS DE GAUFFIN, MONICA L.3140000294600201811000000000000    00000000000000000000000
001027611DNI 013347198VISUARA DE ARZELAN, MYRIAM N. 3440000097360201811000000000000    00000000000000000000000
001027611DNI 013347198VISUARA DE ARZELAN, MYRIAM N. 3140000133100201811000000000000    00000000000000000000000
001027631DNI 013347746JUAREZ ARIAS, MARTA ESTEL     3440000043605201811000000000000    00000000000000000000000
001027631DNI 013347746JUAREZ ARIAS, MARTA ESTEL     3140000154200201811000000000000    00000000000000000000000
001027801DNI 013701827MANZUR, ANALIA DEL VALLE      3140000220700201811000000000000    00000000000000000000000
001027871DNI 017131562BALDOVINO Y.DE AMADO, NELLY B.3440000108500201811000000000000    00000000000000000000000
001027871DNI 017131562BALDOVINO Y.DE AMADO, NELLY B.3140000194200201811000000000000    00000000000000000000000
001027991LE  007674928YARADE,CARLOS ALBERTO         3440000053384201811000000000000    00000000000000000000000
001027991LE  007674928YARADE,CARLOS ALBERTO         3140000110600201811000000000000    00000000000000000000000
001027992LE  007674928YARADE,CARLOS ALBERTO         3140000069100201811000000000000    00000000000000000000000
001028071DNI 012957652FERNANDEZ, CARLOS FEDERICO    3440000009044201811000000000000    00000000000000000000000
001028071DNI 012957652FERNANDEZ, CARLOS FEDERICO    3140000133500201811000000000000    00000000000000000000000
001028072DNI 012957652FERNANDEZ, CARLOS FEDERICO    3140000133500201811000000000000    00000000000000000000000
001028121DNI 016451093LOPEZ,ALBERTO RAUL            3440000154940201811000000000000    00000000000000000000000
001028121DNI 016451093LOPEZ,ALBERTO RAUL            3140000157600201811000000000000    00000000000000000000000
001028161DNI 013823146MONNE,FREDDY OMAR             3440000156370201811000000000000    00000000000000000000000
001028161DNI 013823146MONNE,FREDDY OMAR             3140000112000201811000000000000    00000000000000000000000
001028171DNI 016129108SALSE,OSCAR ANTONIO           3440000098010201811000000000000    00000000000000000000000
001028171DNI 016129108SALSE,OSCAR ANTONIO           3140000167200201811000000000000    00000000000000000000000
001028211DNI 011834339SERRUDO,MARIA CRISTINA        3440000031606201811000000000000    00000000000000000000000
001028211DNI 011834339SERRUDO,MARIA CRISTINA        3140000177400201811000000000000    00000000000000000000000
001028231DNI 012321162IRASMAI,ROQUE MARTIN          3440000178510201811000000000000    00000000000000000000000
001028231DNI 012321162IRASMAI,ROQUE MARTIN          3140000182700201811000000000000    00000000000000000000000
001028301DNI 012826130VELASQUEZ, MARIA ESTHER       3140000338200201811000000000000    00000000000000000000000
001028302DNI 012826130VELASQUEZ, MARIA ESTHER       3140000066800201811000000000000    00000000000000000000000
001028362DNI 014176931MORENO, CESAR GABRIEL         3440000187831201811000000000000    00000000000000000000000
001028362DNI 014176931MORENO, CESAR GABRIEL         3140000310300201811000000000000    00000000000000000000000
001028363DNI 014176931MORENO, CESAR GABRIEL         3140000056000201811000000000000    00000000000000000000000
001028371DNI 013701575VERA, JOSE MARCELO            3140000157800201811000000000000    00000000000000000000000
001028391DNI 013813162DAVIES, LILIAN EMILIA         3440000119633201811000000000000    00000000000000000000000
001028391DNI 013813162DAVIES, LILIAN EMILIA         3140000216100201811000000000000    00000000000000000000000
001028471DNI 014709827TARCAYA, HECTOR RUBEN         3140000067200201811000000000000    00000000000000000000000
001028472DNI 014709827TARCAYA, HECTOR RUBEN         3140000038800201811000000000000    00000000000000000000000
001028473DNI 014709827TARCAYA, HECTOR RUBEN         3140000066900201811000000000000    00000000000000000000000
001028475DNI 014709827TARCAYA, HECTOR RUBEN         3140000038500201811000000000000    00000000000000000000000
001028531DNI 013835649GIL, GUSTAVO DANIEL           3440000038689201811000000000000    00000000000000000000000
001028531DNI 013835649GIL, GUSTAVO DANIEL           3140000396400201811000000000000    00000000000000000000000
001028671DNI 013346496COLINA, SERGIO PABLO          3440000235768201811000000000000    00000000000000000000000
001028671DNI 013346496COLINA, SERGIO PABLO          3140000187100201811000000000000    00000000000000000000000
001028672DNI 013346496COLINA, SERGIO PABLO          3140000054200201811000000000000    00000000000000000000000
001028691DNI 013845106PAREJA, SILVIA                3440000380799201811000000000000    00000000000000000000000
001028691DNI 013845106PAREJA, SILVIA                3140000216100201811000000000000    00000000000000000000000
001028692DNI 013845106PAREJA, SILVIA                3140000054200201811000000000000    00000000000000000000000
001028721DNI 014244606NASSER, JULIO RUBEN           3440000257532201811000000000000    00000000000000000000000
001028721DNI 014244606NASSER, JULIO RUBEN           3140000263100201811000000000000    00000000000000000000000
001028771DNI 016150881ALBINO, ALFREDO OSCAR         3440000243171201811000000000000    00000000000000000000000
001028771DNI 016150881ALBINO, ALFREDO OSCAR         3140000198100201811000000000000    00000000000000000000000
001028791DNI 011382324GRAMAJO DE VARGAS,LEILA NOEMI 3440000078367201811000000000000    00000000000000000000000
001028791DNI 011382324GRAMAJO DE VARGAS,LEILA NOEMI 3140000225200201811000000000000    00000000000000000000000
001028841DNI 016307686WAYAR, NORA LILIANA           3440000218421201811000000000000    00000000000000000000000
001028841DNI 016307686WAYAR, NORA LILIANA           3140000192400201811000000000000    00000000000000000000000
001028861DNI 016150821TEJERINA,GLADYS VIOLETA       3440000342237201811000000000000    00000000000000000000000
001028861DNI 016150821TEJERINA,GLADYS VIOLETA       3140000192400201811000000000000    00000000000000000000000
001028871DNI 012958249MONTERO DE ESCUDERO,ROSA A.   3440000053000201811000000000000    00000000000000000000000
001028871DNI 012958249MONTERO DE ESCUDERO,ROSA A.   3140000226600201811000000000000    00000000000000000000000
001028911DNI 013037727HERRERA de MODAD,NORA GRACIELA3440000857345201811000000000000    00000000000000000000000
001028911DNI 013037727HERRERA de MODAD,NORA GRACIELA3140000217400201811000000000000    00000000000000000000000
001028931DNI 014488950ACOSTA,NELSON AMERICO         3440000079260201811000000000000    00000000000000000000000
001028931DNI 014488950ACOSTA,NELSON AMERICO         3140000187100201811000000000000    00000000000000000000000
001028933DNI 014488950ACOSTA,NELSON AMERICO         3140000054200201811000000000000    00000000000000000000000
001029011DNI 012957082GERONIMO, ILDA DEL MILAGRO    3440000668821201811000000000000    00000000000000000000000
001029011DNI 012957082GERONIMO, ILDA DEL MILAGRO    3140000189500201811000000000000    00000000000000000000000
001029021DNI 012409380AGUILERA,DAVID ANGEL          3440000174854201811000000000000    00000000000000000000000
001029021DNI 012409380AGUILERA,DAVID ANGEL          3140000229300201811000000000000    00000000000000000000000
001029031DNI 016308202DIAZ,RUBEN EDUARDO            3440000514320201811000000000000    00000000000000000000000
001029031DNI 016308202DIAZ,RUBEN EDUARDO            3140000156000201811000000000000    00000000000000000000000
001029081LE  008000795RODRIGUEZ, ALFREDO OSCAR      3140000089000201811000000000000    00000000000000000000000
001029082LE  008000795RODRIGUEZ, ALFREDO OSCAR      3140000089000201811000000000000    00000000000000000000000
001029111DNI 010451246VERA, ROLANDO                 3440000028254201811000000000000    00000000000000000000000
001029111DNI 010451246VERA, ROLANDO                 3140000000000201811000000000000    00000000000000000000000
001029231DNI 010993953PACHECO, OSVALDO LUIS         3440000295569201811000000000000    00000000000000000000000
001029231DNI 010993953PACHECO, OSVALDO LUIS         3140000216100201811000000000000    00000000000000000000000
001029311DNI 010167321DOMINGUEZ, MARCELO RAMON      3140000196100201811000000000000    00000000000000000000000
001029331DNI 010172021PEREYRA, RICARDO EDUARDO      3140000073000201811000000000000    00000000000000000000000
001029391DNI 014488147CASERMEIRO, MARIA ALEJANDRA   3440000092192201811000000000000    00000000000000000000000
001029391DNI 014488147CASERMEIRO, MARIA ALEJANDRA   3140000223400201811000000000000    00000000000000000000000
001029401DNI 010494349RAMOS, LUIS ROGELIO           3440000394044201811000000000000    00000000000000000000000
001029401DNI 010494349RAMOS, LUIS ROGELIO           3140000133100201811000000000000    00000000000000000000000
001029411DNI 012790642ERDMANN DE GIR, ELEONORA      3140000294600201811000000000000    00000000000000000000000
001029481DNI 013040710NAHARRO, NORMA TERESA         3440000410682201811000000000000    00000000000000000000000
001029481DNI 013040710NAHARRO, NORMA TERESA         3140000206300201811000000000000    00000000000000000000000
001029571DNI 016000669MURGIA, VIVIANA               3440000058279201811000000000000    00000000000000000000000
001029571DNI 016000669MURGIA, VIVIANA               3140000232600201811000000000000    00000000000000000000000
001029671DNI 012220938SHAM, EDGARDO LING            3140000514000201811000000000000    00000000000000000000000
001029681DNI 013414614RUIZ, TERESITA DEL VALLE      3440000018533201811000000000000    00000000000000000000000
001029681DNI 013414614RUIZ, TERESITA DEL VALLE      3140000201300201811000000000000    00000000000000000000000
001029711DNI 010836426MANGUIA,JUAN                  3440000064220201811000000000000    00000000000000000000000
001029711DNI 010836426MANGUIA,JUAN                  3140000183000201811000000000000    00000000000000000000000
001029721DNI 013785171PALAVECINO,NESTOR             3440000042334201811000000000000    00000000000000000000000
001029721DNI 013785171PALAVECINO,NESTOR             3140000235800201811000000000000    00000000000000000000000
001029781DNI 013977394GARCIA, RODOLFO FERNANDO      3440000291987201811000000000000    00000000000000000000000
001029781DNI 013977394GARCIA, RODOLFO FERNANDO      3140000232600201811000000000000    00000000000000000000000
001029822DNI 014374314FRANCO, ADA JUDITH            3440000053290201811000000000000    00000000000000000000000
001029822DNI 014374314FRANCO, ADA JUDITH            3140000162200201811000000000000    00000000000000000000000
001029851DNI 012220242HEMSY,CARLOS ENRIQUE          3440000030689201811000000000000    00000000000000000000000
001029851DNI 012220242HEMSY,CARLOS ENRIQUE          3140000154200201811000000000000    00000000000000000000000
001030001DNI 014176479TOLABA,MARIA ELIDA ISABEL     3440000481505201811000000000000    00000000000000000000000
001030001DNI 014176479TOLABA,MARIA ELIDA ISABEL     3140000137500201811000000000000    00000000000000000000000
001030071DNI 010993710ROMAGNOLI, PEDRO JOSE VALENTIN3440000010867201811000000000000    00000000000000000000000
001030071DNI 010993710ROMAGNOLI, PEDRO JOSE VALENTIN3140000481200201811000000000000    00000000000000000000000
001030082DNI 018020866FERNANDEZ FERNANDEZ, ANTONIO  3140000546800201811000000000000    00000000000000000000000
001030121DNI 014176559VILLAGRAN, DANIEL EDUARDO     3140000187100201811000000000000    00000000000000000000000
001030122DNI 014176559VILLAGRAN, DANIEL EDUARDO     3140000054200201811000000000000    00000000000000000000000
001030132DNI 016883418POCOVI DE CARDON, MARTA C.    3440000008653201811000000000000    00000000000000000000000
001030132DNI 016883418POCOVI DE CARDON, MARTA C.    3140000232600201811000000000000    00000000000000000000000
001030141DNI 016887802PAGES, GABRIEL MARIANO        3140000154200201811000000000000    00000000000000000000000
001030261DNI 014858646ANDREANI, GRACIELA LILIAN     3140000425700201811000000000000    00000000000000000000000
001030281DNI 012553151CARDOZO, HECTOR JACINTO       3140000154200201811000000000000    00000000000000000000000
001030331DNI 016128381MOYA, MONICA ESPERANZA        3440000423314201811000000000000    00000000000000000000000
001030331DNI 016128381MOYA, MONICA ESPERANZA        3140000220700201811000000000000    00000000000000000000000
001030332DNI 016128381MOYA, MONICA ESPERANZA        3140000067900201811000000000000    00000000000000000000000
001030341DNI 012244589DE VIANA,MARTA LEONOR         3440000156507201811000000000000    00000000000000000000000
001030341DNI 012244589DE VIANA,MARTA LEONOR         3140000263100201811000000000000    00000000000000000000000
001030411DNI 011943069GONORAZKY, SERGIO MARIO       3140000154200201811000000000000    00000000000000000000000
001030462DNI 010915148CAMARDELLI DE SALAZAR,MARIA C.3440000001777201811000000000000    00000000000000000000000
001030462DNI 010915148CAMARDELLI DE SALAZAR,MARIA C.3140000282800201811000000000000    00000000000000000000000
001030491DNI 016659328SAUAD, JUAN JOSE              3440000317598201811000000000000    00000000000000000000000
001030491DNI 016659328SAUAD, JUAN JOSE              3140000223400201811000000000000    00000000000000000000000
001030501DNI 013190293SCIORTINO, JUAN BAUTISTA      3440000316196201811000000000000    00000000000000000000000
001030501DNI 013190293SCIORTINO, JUAN BAUTISTA      3140000154200201811000000000000    00000000000000000000000
001030511DNI 011538253MARTINEZ, JULIO BARTOLOME     3440000289007201811000000000000    00000000000000000000000
001030511DNI 011538253MARTINEZ, JULIO BARTOLOME     3140000156000201811000000000000    00000000000000000000000
001030531DNI 012843050MIRANDA, ROSA DEL VALLE       3140000121000201811000000000000    00000000000000000000000
001030551DNI 012712877LOPEZ R., KENNETH NORBERTO    3440000018891201811000000000000    00000000000000000000000
001030551DNI 012712877LOPEZ R., KENNETH NORBERTO    3140000133100201811000000000000    00000000000000000000000
001030621DNI 012790814DIMARCO, SILVIA ADRIANA       3440000020955201811000000000000    00000000000000000000000
001030621DNI 012790814DIMARCO, SILVIA ADRIANA       3140000154200201811000000000000    00000000000000000000000
001030651DNI 016000105TILCA, FERNANDO FLORENTIN     3440000123279201811000000000000    00000000000000000000000
001030651DNI 016000105TILCA, FERNANDO FLORENTIN     3140000201300201811000000000000    00000000000000000000000
001030652DNI 016000105TILCA, FERNANDO FLORENTIN     3140000058300201811000000000000    00000000000000000000000
001030653DNI 016000105TILCA, FERNANDO FLORENTIN     3140000057900201811000000000000    00000000000000000000000
001030741DNI 017581411LIVELLI, LUIS EDUARDO         3140000124600201811000000000000    00000000000000000000000
001030751DNI 017355220PALOPOLI, EDUARDO DANIEL      3440000095689201811000000000000    00000000000000000000000
001030751DNI 017355220PALOPOLI, EDUARDO DANIEL      3140000093800201811000000000000    00000000000000000000000
001030752DNI 017355220PALOPOLI, EDUARDO DANIEL      3140000039600201811000000000000    00000000000000000000000
001030753DNI 017355220PALOPOLI, EDUARDO DANIEL      3140000046900201811000000000000    00000000000000000000000
001030754DNI 017355220PALOPOLI, EDUARDO DANIEL      3140000039200201811000000000000    00000000000000000000000
001030791DNI 014303441ROMERO, GLADIS GRACIELA       3440000268811201811000000000000    00000000000000000000000
001030791DNI 014303441ROMERO, GLADIS GRACIELA       3140000294600201811000000000000    00000000000000000000000
001030821DNI 014695363VELASQUES, MIRTA NORMA        3440000004000201811000000000000    00000000000000000000000
001030821DNI 014695363VELASQUES, MIRTA NORMA        3140000187100201811000000000000    00000000000000000000000
001030822DNI 014695363VELASQUES, MIRTA NORMA        3140000054200201811000000000000    00000000000000000000000
001030831DNI 016140635ALVAREZ, MARCELA AMALIA       3440000051715201811000000000000    00000000000000000000000
001030831DNI 016140635ALVAREZ, MARCELA AMALIA       3140000057700201811000000000000    00000000000000000000000
001030832DNI 016140635ALVAREZ, MARCELA AMALIA       3140000078900201811000000000000    00000000000000000000000
001030851DNI 012690302MORALES,ROLANDO               3440000442457201811000000000000    00000000000000000000000
001030851DNI 012690302MORALES,ROLANDO               3140000186100201811000000000000    00000000000000000000000
001030852DNI 012690302MORALES,ROLANDO               3140000073300201811000000000000    00000000000000000000000
001030881DNI 012220384CADENA, CARLOS ALBERTO        3440000076945201811000000000000    00000000000000000000000
001030881DNI 012220384CADENA, CARLOS ALBERTO        3140000294600201811000000000000    00000000000000000000000
001030933DNI 017308840TOLEDO, MARIO WALTER EFRAIN   3440000039000201811000000000000    00000000000000000000000
001030933DNI 017308840TOLEDO, MARIO WALTER EFRAIN   3140000396400201811000000000000    00000000000000000000000
001030941DNI 013550547ESTRADA, EDGAR LEOPOLDO       3140000133100201811000000000000    00000000000000000000000
001030961DNI 017360731ESPARZA, MARCELO HUMBERTO     3140000101200201811000000000000    00000000000000000000000
001030962DNI 017360731ESPARZA, MARCELO HUMBERTO     3140000101200201811000000000000    00000000000000000000000
001030963DNI 017360731ESPARZA, MARCELO HUMBERTO     3140000101200201811000000000000    00000000000000000000000
001030981DNI 012856176PAY, JOSE LUIS                3140000133100201811000000000000    00000000000000000000000
001031011DNI 013372961FARFAN, RAMON ANTONIO         3440000387925201811000000000000    00000000000000000000000
001031011DNI 013372961FARFAN, RAMON ANTONIO         3140000232600201811000000000000    00000000000000000000000
001031012DNI 013372961FARFAN, RAMON ANTONIO         3140000058300201811000000000000    00000000000000000000000
001031031DNI 017792633VILLARROEL, YOLANDA           3440000060107201811000000000000    00000000000000000000000
001031031DNI 017792633VILLARROEL, YOLANDA           3140000121000201811000000000000    00000000000000000000000
001031032DNI 017792633VILLARROEL, YOLANDA           3140000121000201811000000000000    00000000000000000000000
001031041DNI 016744266BIELLA, FELIPE GUILLERMO      3440000168112201811000000000000    00000000000000000000000
001031041DNI 016744266BIELLA, FELIPE GUILLERMO      3140000179000201811000000000000    00000000000000000000000
001031171DNI 016658878ORTEGA, RAUL HUMBERTO         3440000185159201811000000000000    00000000000000000000000
001031171DNI 016658878ORTEGA, RAUL HUMBERTO         3140000200000201811000000000000    00000000000000000000000
001031211DNI 016883968BINDA, ADRIANA ESTER          3140000174800201811000000000000    00000000000000000000000
001031241DNI 014402726DIAZ DE KARANICOLAS,ADRIANA L.3440000304311201811000000000000    00000000000000000000000
001031241DNI 014402726DIAZ DE KARANICOLAS,ADRIANA L.3140000131600201811000000000000    00000000000000000000000
001031251DNI 012281476QUERIO, STELLA MARIS          3440000638038201811000000000000    00000000000000000000000
001031251DNI 012281476QUERIO, STELLA MARIS          3140000210600201811000000000000    00000000000000000000000
001031281DNI 016899262MAIDANA, OSVALDO MANUEL       3440000302708201811000000000000    00000000000000000000000
001031281DNI 016899262MAIDANA, OSVALDO MANUEL       3140000162400201811000000000000    00000000000000000000000
001031291DNI 013845128CHIERICI, LUIS ROBERTO        3440000378000201811000000000000    00000000000000000000000
001031291DNI 013845128CHIERICI, LUIS ROBERTO        3140000133100201811000000000000    00000000000000000000000
001031301DNI 012407586ZERPA, ALFREDO GASPAR         3440000282794201811000000000000    00000000000000000000000
001031301DNI 012407586ZERPA, ALFREDO GASPAR         3140000190200201811000000000000    00000000000000000000000
001031331DNI 011283534CORREA, LUIS DANIEL           3440000094723201811000000000000    00000000000000000000000
001031331DNI 011283534CORREA, LUIS DANIEL           3140000227900201811000000000000    00000000000000000000000
001031361DNI 011517540BELTON,RAFAEL FERNANDO        3140000093800201811000000000000    00000000000000000000000
001031362DNI 011517540BELTON, RAFAEL FERNANDO       3140000079200201811000000000000    00000000000000000000000
001031364DNI 011517540BELTON, RAFAEL FERNANDO       3140000046500201811000000000000    00000000000000000000000
001031381DNI 011974154MORENO, INES MYRIAM           3440000258967201811000000000000    00000000000000000000000
001031381DNI 011974154MORENO, INES MYRIAM           3140000112000201811000000000000    00000000000000000000000
001031531DNI 014176992OSINAGA DE LUNA,JUANA GRACIELA3440000344516201811000000000000    00000000000000000000000
001031531DNI 014176992OSINAGA DE LUNA,JUANA GRACIELA3140000259300201811000000000000    00000000000000000000000
001031551DNI 014176374CARRAL COOK, MARIA VICTORIA   3440000068161201811000000000000    00000000000000000000000
001031551DNI 014176374CARRAL COOK, MARIA VICTORIA   3140000189500201811000000000000    00000000000000000000000
001031691DNI 014709265LISI DE ZANEK, MONICA         3440000073755201811000000000000    00000000000000000000000
001031691DNI 014709265LISI DE ZANEK, MONICA         3140000174800201811000000000000    00000000000000000000000
001031751DNI 013701145FADEL, MIRYAM HAYDEE          3440000134745201811000000000000    00000000000000000000000
001031751DNI 013701145FADEL, MIRYAM HAYDEE          3140000157800201811000000000000    00000000000000000000000
001031811DNI 012220215LAZAROVICH, SERGIA            3140000097000201811000000000000    00000000000000000000000
001031812DNI 012220215LAZAROVICH, SERGIA            3140000056000201811000000000000    00000000000000000000000
001031901DNI 011834623PAZ COSTA, EDUARDO            3440000161994201811000000000000    00000000000000000000000
001031901DNI 011834623PAZ COSTA, EDUARDO            3140000133100201811000000000000    00000000000000000000000
001031941DNI 016753348ORTEGA BAES, FRANCISCO PABLO  3140000429200201811000000000000    00000000000000000000000
001031961DNI 013701463OROSCO SEGURA, LIA ELIZABETH  3140000133100201811000000000000    00000000000000000000000
001032061DNI 014551029CORIMAYO, ELSA LILIANA        3440000089626201811000000000000    00000000000000000000000
001032061DNI 014551029CORIMAYO, ELSA LILIANA        3140000105900201811000000000000    00000000000000000000000
001032071DNI 018735126VACCA MOLINA, MARITZA JUANITA 3440000444017201811000000000000    00000000000000000000000
001032071DNI 018735126VACCA MOLINA, MARITZA JUANITA 3140000232600201811000000000000    00000000000000000000000
001032072DNI 018735126VACCA MOLINA, MARITZA JUANITA 3140000058300201811000000000000    00000000000000000000000
001032112DNI 017355621MENDEZ, NILDA GRACIELA        3440000031622201811000000000000    00000000000000000000000
001032112DNI 017355621MENDEZ, NILDA GRACIELA        3140000093800201811000000000000    00000000000000000000000
001032113DNI 017355621MENDEZ, NILDA GRACIELA        3140000108300201811000000000000    00000000000000000000000
001032114DNI 017355621MENDEZ, NILDA GRACIELA        3140000046500201811000000000000    00000000000000000000000
001032151DNI 011539198KRIEGER DE COSSEDDU, MARIA S. 3140000223400201811000000000000    00000000000000000000000
001032152DNI 011539198KRIEGER DE COSSEDDU, MARIA S. 3140000056000201811000000000000    00000000000000000000000
001032201DNI 017355332ARAMAYO, ANA MARIA            3440000073343201811000000000000    00000000000000000000000
001032201DNI 017355332ARAMAYO, ANA MARIA            3140000162400201811000000000000    00000000000000000000000
001032211DNI 016080009ROCHA, LUIS RODOLFO           3440001054986201811000000000000    00000000000000000000000
001032211DNI 016080009ROCHA, LUIS RODOLFO           3140000180400201811000000000000    00000000000000000000000
001032231DNI 016000491FERREIRA PADILLA, SILVIA ELENA3440000302365201811000000000000    00000000000000000000000
001032231DNI 016000491FERREIRA PADILLA, SILVIA ELENA3140000216100201811000000000000    00000000000000000000000
001032232DNI 016000491FERREIRA PADILLA, SILVIA ELENA3140000046900201811000000000000    00000000000000000000000
001032241LC  005891400MORENO, RAMONA IGNACIA        3140000223400201811000000000000    00000000000000000000000
001032251DNI 014007509ORTIN VUJOVICH, ADRIANA E.    3440000086621201811000000000000    00000000000000000000000
001032251DNI 014007509ORTIN VUJOVICH, ADRIANA E.    3140000223400201811000000000000    00000000000000000000000
001032252DNI 014007509ORTIN VUJOVICH, ADRIANA E.    3140000068600201811000000000000    00000000000000000000000
001032311DNI 014488985LOPEZ DE WAYAR NU벤Z, ALICIA  3440000328087201811000000000000    00000000000000000000000
001032311DNI 014488985LOPEZ DE WAYAR NU벤Z, ALICIA  3140000227900201811000000000000    00000000000000000000000
001032321DNI 016307410OSSOLA, LUIS GUILLERMO        3440000001340201811000000000000    00000000000000000000000
001032321DNI 016307410OSSOLA, LUIS GUILLERMO        3140000063300201811000000000000    00000000000000000000000
001032322DNI 016307410OSSOLA, LUIS GUILLERMO        3140000112000201811000000000000    00000000000000000000000
001032401DNI 017190700ROMERO, FELIX                 3440000185000201811000000000000    00000000000000000000000
001032401DNI 017190700ROMERO, FELIX                 3140000196100201811000000000000    00000000000000000000000
001032441DNI 017289265LONGHI DE LOPEZ, MARIA E.     3440000150592201811000000000000    00000000000000000000000
001032441DNI 017289265LONGHI DE LOPEZ, MARIA E.     3140000188600201811000000000000    00000000000000000000000
001032491DNI 014708368SALSE, HECTOR OMAR            3440000015833201811000000000000    00000000000000000000000
001032491DNI 014708368SALSE, HECTOR OMAR            3140000188400201811000000000000    00000000000000000000000
001032501DNI 017791083CRUZ DE TOLEDO,MONICA PATRICIA3440000598265201811000000000000    00000000000000000000000
001032501DNI 017791083CRUZ DE TOLEDO,MONICA PATRICIA3140000162400201811000000000000    00000000000000000000000
001032511DNI 014708683HEGAB, RICARDO MARCELO        3440000244623201811000000000000    00000000000000000000000
001032511DNI 014708683HEGAB, RICARDO MARCELO        3140000154200201811000000000000    00000000000000000000000
001032521DNI 017792620MORENO, CARMEN CECILIA        3140000048500201811000000000000    00000000000000000000000
001032522DNI 017792620MORENO, CARMEN CECILIA        3140000223400201811000000000000    00000000000000000000000
001032541DNI 017088258MORA베, LILIANA BEATRIZ       3440000107844201811000000000000    00000000000000000000000
001032541DNI 017088258MORA베, LILIANA BEATRIZ       3140000232600201811000000000000    00000000000000000000000
001032551DNI 017581029ACOSTA, NORMA REBECA          3440000142049201811000000000000    00000000000000000000000
001032551DNI 017581029ACOSTA, NORMA REBECA          3140000232600201811000000000000    00000000000000000000000
001032552DNI 017581029ACOSTA, NORMA REBECA          3140000058300201811000000000000    00000000000000000000000
001032571DNI 011943929GOYTIA SYLVESTER, ABEL MARTIN 3440000033697201811000000000000    00000000000000000000000
001032571DNI 011943929GOYTIA SYLVESTER, ABEL MARTIN 3140000154200201811000000000000    00000000000000000000000
001032581DNI 013414468MAZA, RUBEN DARIO             3140000301900201811000000000000    00000000000000000000000
001032582DNI 013414468MAZA, RUBEN DARIO             3140000066800201811000000000000    00000000000000000000000
001032601DNI 017574066FUNES, HECTOR NICOLAS         3440000172605201811000000000000    00000000000000000000000
001032601DNI 017574066FUNES, HECTOR NICOLAS         3140000223400201811000000000000    00000000000000000000000
001032611DNI 012220748CAPALBI, OSCAR ESTEBAN        3140000041900201811000000000000    00000000000000000000000
001032612DNI 012220748CAPALBI, OSCAR ESTEBAN        3140000041900201811000000000000    00000000000000000000000
001032613DNI 012220748CAPALBI, OSCAR ESTEBAN        3140000041900201811000000000000    00000000000000000000000
001032614DNI 012220748CAPALBI, OSCAR ESTEBAN        3140000041900201811000000000000    00000000000000000000000
001032615DNI 012220748CAPALBI, OSCAR ESTEBAN        3140000041600201811000000000000    00000000000000000000000
001032651DNI 017354247BARRIENTOS, RODOLFO           3440000762770201811000000000000    00000000000000000000000
001032651DNI 017354247BARRIENTOS, RODOLFO           3140000093800201811000000000000    00000000000000000000000
001032652DNI 017354247BARRIENTOS, RODOLFO           3140000108300201811000000000000    00000000000000000000000
001032661DNI 013701459ROYO FERNANDEZ, SILVIA MONICA 3140000136300201811000000000000    00000000000000000000000
001032671DNI 011600509SALVO, ROLANDO NAHUEL         3440000109433201811000000000000    00000000000000000000000
001032671DNI 011600509SALVO, ROLANDO NAHUEL         3140000365300201811000000000000    00000000000000000000000
001032681DNI 014007626LAZARTE, GUSTAVO LUCIO        3140000154200201811000000000000    00000000000000000000000
001032701DNI 016280385QUIROGA M.DE BAUDINO,MARIANA  3140000127100201811000000000000    00000000000000000000000
001032741DNI 017131564SORIA, FRANCISCO FERNANDO     3140000058300201811000000000000    00000000000000000000000
001032742DNI 017131564SORIA, FRANCISCO FERNANDO     3440000077485201811000000000000    00000000000000000000000
001032742DNI 017131564SORIA, FRANCISCO FERNANDO     3140000201300201811000000000000    00000000000000000000000
001032901DNI 014302602CASTILLO DE ASTORGA,SILVIA P. 3440000057058201811000000000000    00000000000000000000000
001032901DNI 014302602CASTILLO DE ASTORGA,SILVIA P. 3140000164800201811000000000000    00000000000000000000000
001032902DNI 014302602CASTILLO DE ASTORGA, SILVIA P.3140000123600201811000000000000    00000000000000000000000
001033061DNI 016000674OLIVER, CLAUDIA JOSEFINA      3440000294204201811000000000000    00000000000000000000000
001033061DNI 016000674OLIVER, CLAUDIA JOSEFINA      3140000080700201811000000000000    00000000000000000000000
001033062DNI 016000674OLIVER, CLAUDIA JOSEFINA      3140000080700201811000000000000    00000000000000000000000
001033131DNI 018692384GUEVARA CHACON, CARLOS        3440000137883201811000000000000    00000000000000000000000
001033131DNI 018692384GUEVARA CHACON, CARLOS        3140000156700201811000000000000    00000000000000000000000
001033201LE  008182450FERNANDEZ, DOMINGO            3440000200679201811000000000000    00000000000000000000000
001033201LE  008182450FERNANDEZ, DOMINGO            3140000154200201811000000000000    00000000000000000000000
001033271DNI 014304434LAZAROVICH, MARIA BEATRIZ     3140000135100201811000000000000    00000000000000000000000
001033361DNI 012409765AYALA FLORES, MARIA ROSA I.   3140000116600201811000000000000    00000000000000000000000
001033362DNI 012409765AYALA F.DE YA벤Z,MARIA ROSA I.3440000457466201811000000000000    00000000000000000000000
001033362DNI 012409765AYALA F.DE YA벤Z,MARIA ROSA I.3140000058300201811000000000000    00000000000000000000000
001033364DNI 012409765AYALA F.DE YA벤Z,MARIA ROSA I.3140000058300201811000000000000    00000000000000000000000
001033381DNI 014479956VERA, CATALINA                3140000133500201811000000000000    00000000000000000000000
001033382DNI 014479956VERA, CATALINA                3140000066800201811000000000000    00000000000000000000000
001033451DNI 013701466ZAMAR DE ESTEBAN, ADRIANA C.  3440000099618201811000000000000    00000000000000000000000
001033451DNI 013701466ZAMAR DE ESTEBAN, ADRIANA C.  3140000223400201811000000000000    00000000000000000000000
001033481DNI 018687298SARAVIA ALIA, DIEGO           3140000054200201811000000000000    00000000000000000000000
001033482DNI 018687298SARAVIA ALIA, DIEGO           3140000216100201811000000000000    00000000000000000000000
001033511DNI 006383141ACRECHE, NOEMI ESTELA         3440000155481201811000000000000    00000000000000000000000
001033511DNI 006383141ACRECHE, NOEMI ESTELA         3140000232600201811000000000000    00000000000000000000000
001033512DNI 006383141ACRECHE, NOEMI ESTELA         3140000065900201811000000000000    00000000000000000000000
001033531DNI 018710146UNZUETA PEREZ, JORGE          3440000121517201811000000000000    00000000000000000000000
001033531DNI 018710146UNZUETA PEREZ, JORGE          3140000187100201811000000000000    00000000000000000000000
001033532DNI 018710146UNZUETA PEREZ, JORGE          3140000046900201811000000000000    00000000000000000000000
001033551DNI 012739941BARBOZA DE TESEI, MARTHA C.   3140000409400201811000000000000    00000000000000000000000
001033561DNI 016080348GIL FERNANDEZ, ESTELA MONICA  3440000145443201811000000000000    00000000000000000000000
001033561DNI 016080348GIL FERNANDEZ, ESTELA MONICA  3140000216100201811000000000000    00000000000000000000000
001033581DNI 014329575ZARATE, NOEL ANGEL            3140000029700201811000000000000    00000000000000000000000
001033583DNI 014329575ZARATE, NOEL ANGEL            3140000029700201811000000000000    00000000000000000000000
001033584DNI 014329575ZARATE, NOEL ANGEL            3140000054300201811000000000000    00000000000000000000000
001033586DNI 014329575ZARATE, NOEL ANGEL            3140000054300201811000000000000    00000000000000000000000
001033651DNI 017582074GOMEZ, ADRIANA DEL SOCORRO    3440000531432201811000000000000    00000000000000000000000
001033651DNI 017582074GOMEZ, ADRIANA DEL SOCORRO    3140000187300201811000000000000    00000000000000000000000
001033661DNI 011944476URQUIZA FERRONI, MARIA SUSANA 3440000339525201811000000000000    00000000000000000000000
001033661DNI 011944476URQUIZA FERRONI, MARIA SUSANA 3140000202300201811000000000000    00000000000000000000000
001033671DNI 016899355MAMANI, ANITA ISABEL          3440000084600201811000000000000    00000000000000000000000
001033671DNI 016899355MAMANI, ANITA ISABEL          3140000234800201811000000000000    00000000000000000000000
001033681DNI 017196864PANIAGUA,MERCEDES NOEMI DEL V.3440000582418201811000000000000    00000000000000000000000
001033681DNI 017196864PANIAGUA,MERCEDES NOEMI DEL V.3140000196100201811000000000000    00000000000000000000000
001033731DNI 011539742ARAMAYO, NORA GRISELIA        3440000317327201811000000000000    00000000000000000000000
001033731DNI 011539742ARAMAYO, NORA GRISELIA        3140000114800201811000000000000    00000000000000000000000
001033811DNI 014489465MAC GAUL DE JORGE, MARCIA I.  3440000006000201811000000000000    00000000000000000000000
001033811DNI 014489465MAC GAUL DE JORGE, MARCIA I.  3140000244300201811000000000000    00000000000000000000000
001033871DNI 012553325KIRSCHBAUM, PABLO ENRIQUE     3440000050000201811000000000000    00000000000000000000000
001033871DNI 012553325KIRSCHBAUM, PABLO ENRIQUE     3140000133100201811000000000000    00000000000000000000000
001033892DNI 016234237CORDOBA, DANIEL RUBEN         3440000119378201811000000000000    00000000000000000000000
001033892DNI 016234237CORDOBA, DANIEL RUBEN         3140000112000201811000000000000    00000000000000000000000
001033941DNI 011080649TEJERINA, ALBERTO EDUARDO     3440000081819201811000000000000    00000000000000000000000
001033941DNI 011080649TEJERINA, ALBERTO EDUARDO     3140000108300201811000000000000    00000000000000000000000
001033942DNI 011080649TEJERINA, ALBERTO EDUARDO     3140000108300201811000000000000    00000000000000000000000
001033943DNI 011080649TEJERINA, ALBERTO EDUARDO     3140000067400201811000000000000    00000000000000000000000
001033951DNI 016887756LOPEZ, JORGE LUIS             3440000024874201811000000000000    00000000000000000000000
001033951DNI 016887756LOPEZ, JORGE LUIS             3140000154200201811000000000000    00000000000000000000000
001034041DNI 013541471JADUR, CAMILO ALBERTO         3440000304952201811000000000000    00000000000000000000000
001034041DNI 013541471JADUR, CAMILO ALBERTO         3140000429200201811000000000000    00000000000000000000000
001034051DNI 018020786RAJAL, VERONICA BEATRIZ       3440000171517201811000000000000    00000000000000000000000
001034051DNI 018020786RAJAL, VERONICA BEATRIZ       3140000263100201811000000000000    00000000000000000000000
001034061DNI 016307098DIB CHAGRA, ADRIAN ANTONIO    3140000200800201811000000000000    00000000000000000000000
001034101DNI 016753473CORRILLO, DIONICIO            3440000140221201811000000000000    00000000000000000000000
001034101DNI 016753473CORRILLO, DIONICIO            3140000271100201811000000000000    00000000000000000000000
001034102DNI 016753473CORRILLO, DIONICIO            3140000093800201811000000000000    00000000000000000000000
001034103DNI 016753473CORRILLO, DIONICIO            3140000054200201811000000000000    00000000000000000000000
001034161DNI 013033746NIEVA DE FUENZALIDA, LUCIA B. 3440000204833201811000000000000    00000000000000000000000
001034161DNI 013033746NIEVA DE FUENZALIDA, LUCIA B. 3140000223400201811000000000000    00000000000000000000000
001034191DNI 012328679MEDINA DE GILLIERI, MARTHA B. 3140000200800201811000000000000    00000000000000000000000
001034201DNI 017354765RAMIREZ MORALES,JORGE FEDERICO3440000006120201811000000000000    00000000000000000000000
001034201DNI 017354765RAMIREZ MORALES,JORGE FEDERICO3140000220700201811000000000000    00000000000000000000000
001034251DNI 016128277RAMON,ADRIANA NOEMI           3440000210184201811000000000000    00000000000000000000000
001034251DNI 016128277RAMON,ADRIANA NOEMI           3140000223400201811000000000000    00000000000000000000000
001034311DNI 013577804TORRES, CARLOS DARIO          3440000523830201811000000000000    00000000000000000000000
001034311DNI 013577804TORRES, CARLOS DARIO          3140000196100201811000000000000    00000000000000000000000
001034391DNI 016722138ALVAREZ, ADRIANA ELISABET     3440000109000201811000000000000    00000000000000000000000
001034391DNI 016722138ALVAREZ, ADRIANA ELISABET     3140000232600201811000000000000    00000000000000000000000
001034392DNI 016722138ALVAREZ, ADRIANA ELISABET     3140000058300201811000000000000    00000000000000000000000
001034412DNI 012712100VALDIVIEZO, MARIA SILVIA      3140000085600201811000000000000    00000000000000000000000
001034461DNI 014304165JORGE DIAZ, CLAUDIA INES      3140000156500201811000000000000    00000000000000000000000
001034471DNI 016658961AVILA, GRACIELA NOEMI         3440000262909201811000000000000    00000000000000000000000
001034471DNI 016658961AVILA, GRACIELA NOEMI         3140000232600201811000000000000    00000000000000000000000
001034501DNI 010388834MATTENELLA DE GUIDI,LILIAN E. 3140000282800201811000000000000    00000000000000000000000
001034521DNI 017289361RODRIGUEZ DE MORALES, SILVIA  3440000777217201811000000000000    00000000000000000000000
001034521DNI 017289361RODRIGUEZ DE MORALES, SILVIA  3140000186700201811000000000000    00000000000000000000000
001034541DNI 016307040TORRES PALACIOS,ALDO RUBEN    3440000014167201811000000000000    00000000000000000000000
001034541DNI 016307040TORRES PALACIOS,ALDO RUBEN    3140000186100201811000000000000    00000000000000000000000
001034551DNI 014329668ALEMAN de ABAN, REINA PALMIRA 3440000211674201811000000000000    00000000000000000000000
001034551DNI 014329668ALEMAN de ABAN, REINA PALMIRA 3140000186100201811000000000000    00000000000000000000000
001034561DNI 012959288RAMIREZ DE SARAPURA,LIDIA E.  3140000221100201811000000000000    00000000000000000000000
001034591DNI 016000528ALVAREZ,JOSE RUBEN            3440000017133201811000000000000    00000000000000000000000
001034591DNI 016000528ALVAREZ,JOSE RUBEN            3140000186700201811000000000000    00000000000000000000000
001034601DNI 016517527CORREJIDOR,HECTOR MARTIN      3440000429943201811000000000000    00000000000000000000000
001034601DNI 016517527CORREJIDOR,HECTOR MARTIN      3140000209000201811000000000000    00000000000000000000000
001034621DNI 010563584RODRIGUEZ,LUCIA ALBERTINA     3440000063764201811000000000000    00000000000000000000000
001034621DNI 010563584RODRIGUEZ,LUCIA ALBERTINA     3140000159700201811000000000000    00000000000000000000000
001034641DNI 016753196LEIVA, GLADYS GRACIELA        3440000242533201811000000000000    00000000000000000000000
001034641DNI 016753196LEIVA, GLADYS GRACIELA        3140000202000201811000000000000    00000000000000000000000
001034651DNI 018711570SALAZAR MORALES,MARIA XIMENA  3440000182541201811000000000000    00000000000000000000000
001034651DNI 018711570SALAZAR MORALES,MARIA XIMENA  3140000202000201811000000000000    00000000000000000000000
001034711DNI 014977445VERGARA,FELIX ANGEL           3440000162036201811000000000000    00000000000000000000000
001034711DNI 014977445VERGARA,FELIX ANGEL           3140000221100201811000000000000    00000000000000000000000
001034731DNI 016883173MONTA벤Z,MANUEL CAYETANO      3440000614291201811000000000000    00000000000000000000000
001034731DNI 016883173MONTA벤Z,MANUEL CAYETANO      3140000203400201811000000000000    00000000000000000000000
001034741DNI 018019342I벨GO, CESAR MIGUEL           3440000074264201811000000000000    00000000000000000000000
001034741DNI 018019342I벨GO, CESAR MIGUEL           3140000186700201811000000000000    00000000000000000000000
001034751DNI 017308574PERALTA,JOSE ANTONIO          3440000184573201811000000000000    00000000000000000000000
001034751DNI 017308574PERALTA,JOSE ANTONIO          3140000122900201811000000000000    00000000000000000000000
001034761DNI 014865102TOSCANO,FRANCISCO ANTONIO     3440000586947201811000000000000    00000000000000000000000
001034761DNI 014865102TOSCANO,FRANCISCO ANTONIO     3140000186100201811000000000000    00000000000000000000000
001034771DNI 017247388RODRIGUEZ,ROBERTO SILVIO      3440000540618201811000000000000    00000000000000000000000
001034771DNI 017247388RODRIGUEZ,ROBERTO SILVIO      3140000266200201811000000000000    00000000000000000000000
001034772DNI 017247388RODRIGUEZ, ROBERTO SILVIO     3140000121000201811000000000000    00000000000000000000000
001034781DNI 020247115COMOGLIO DE CUFRE, SANDRA T.  3440000096803201811000000000000    00000000000000000000000
001034781DNI 020247115COMOGLIO DE CUFRE, SANDRA T.  3140000196100201811000000000000    00000000000000000000000
001034791DNI 013346310VARGAS,DORA MODESTA           3440000351948201811000000000000    00000000000000000000000
001034791DNI 013346310VARGAS,DORA MODESTA           3140000186700201811000000000000    00000000000000000000000
001034801DNI 014708875CASTRO, OSCAR RAUL            3440000456758201811000000000000    00000000000000000000000
001034801DNI 014708875CASTRO, OSCAR RAUL            3140000186100201811000000000000    00000000000000000000000
001034811DNI 016659113PERALTA,HECTOR MIGUEL         3440000018733201811000000000000    00000000000000000000000
001034811DNI 016659113PERALTA,HECTOR MIGUEL         3140000187300201811000000000000    00000000000000000000000
001034841DNI 014303384MIRANDA,SILVIA LEONOR         3440000024812201811000000000000    00000000000000000000000
001034841DNI 014303384MIRANDA,SILVIA LEONOR         3140000186100201811000000000000    00000000000000000000000
001034881DNI 016451070HOMES,HILDA PETRONA           3440000000650201811000000000000    00000000000000000000000
001034881DNI 016451070HOMES,HILDA PETRONA           3140000186700201811000000000000    00000000000000000000000
001034891DNI 017580773PASTRANA,MIRIAM EDITH         3440000045717201811000000000000    00000000000000000000000
001034891DNI 017580773PASTRANA,MIRIAM EDITH         3140000196900201811000000000000    00000000000000000000000
001034901DNI 014302555ALBARRACIN,ELSA BEATRIZ       3440000705627201811000000000000    00000000000000000000000
001034901DNI 014302555ALBARRACIN,ELSA BEATRIZ       3140000252500201811000000000000    00000000000000000000000
001034921DNI 014738750NINA,MIGUEL MARTIN            3440000016238201811000000000000    00000000000000000000000
001034921DNI 014738750NINA,MIGUEL MARTIN            3140000321700201811000000000000    00000000000000000000000
001034922DNI 014738750NINA,MIGUEL MARTIN            3140000126600201811000000000000    00000000000000000000000
001034942DNI 016753187CEJAS,MARIO ARMANDO           3440000103051201811000000000000    00000000000000000000000
001034942DNI 016753187CEJAS,MARIO ARMANDO           3140000050700201811000000000000    00000000000000000000000
001034943DNI 016753187CEJAS,MARIO ARMANDO           3140000121000201811000000000000    00000000000000000000000
001034944DNI 016753187CEJAS,MARIO ARMANDO           3140000004800201811000000000000    00000000000000000000000
001034951DNI 016659404ARIAS DE MARTI, ROSA PATRICIA 3440000337955201811000000000000    00000000000000000000000
001034951DNI 016659404ARIAS DE MARTI, ROSA PATRICIA 3140000209500201811000000000000    00000000000000000000000
001034961DNI 016734780ZAMBRANO,DANILO BERNABE       3440000037067201811000000000000    00000000000000000000000
001034961DNI 016734780ZAMBRANO,DANILO BERNABE       3140000252500201811000000000000    00000000000000000000000
001034971DNI 017580826LASCI,NORMA ALICIA            3440000075673201811000000000000    00000000000000000000000
001034971DNI 017580826LASCI,NORMA ALICIA            3140000187900201811000000000000    00000000000000000000000
001034981DNI 016317288NINA,JORGE RAUL               3440000037521201811000000000000    00000000000000000000000
001034981DNI 016317288NINA,JORGE RAUL               3140000321700201811000000000000    00000000000000000000000
001034982DNI 016317288NINA,JORGE RAUL               3140000088500201811000000000000    00000000000000000000000
001034991DNI 012958377ARIAS DE JIMENEZ,MARTA DEL V. 3440000055599201811000000000000    00000000000000000000000
001034991DNI 012958377ARIAS DE JIMENEZ,MARTA DEL V. 3140000303700201811000000000000    00000000000000000000000
001035031DNI 013037756VILCA,NORMA ASUNCION          3440000114828201811000000000000    00000000000000000000000
001035031DNI 013037756VILCA,NORMA ASUNCION          3140000307000201811000000000000    00000000000000000000000
001035051DNI 016000389TORRES,GERMAN EDUARDO         3440000063488201811000000000000    00000000000000000000000
001035051DNI 016000389TORRES,GERMAN EDUARDO         3140000188600201811000000000000    00000000000000000000000
001035061DNI 016517624VARGAS,MIGUEL ANGEL           3440000017167201811000000000000    00000000000000000000000
001035061DNI 016517624VARGAS,MIGUEL ANGEL           3140000186100201811000000000000    00000000000000000000000
001035081DNI 016753120IBA벤Z,MERCEDES ELIZABETH     3140000167000201811000000000000    00000000000000000000000
001035101DNI 012712011CASTRO,NORA INES              3440000022300201811000000000000    00000000000000000000000
001035101DNI 012712011CASTRO,NORA INES              3140000180400201811000000000000    00000000000000000000000
001035111DNI 018542226RODRIGUEZ,HECTOR EDUARDO      3440000593212201811000000000000    00000000000000000000000
001035111DNI 018542226RODRIGUEZ,HECTOR EDUARDO      3140000177600201811000000000000    00000000000000000000000
001035121DNI 014670067ANDRADA,FEDERICO JAIME A.     3440000868978201811000000000000    00000000000000000000000
001035121DNI 014670067ANDRADA,FEDERICO JAIME A.     3140000241600201811000000000000    00000000000000000000000
001035141DNI 018020072APARICIO, NANCY GRACIELA      3440000260178201811000000000000    00000000000000000000000
001035141DNI 018020072APARICIO, NANCY GRACIELA      3140000238900201811000000000000    00000000000000000000000
001035151DNI 012692746MORENO,ESTELA DEL ALBA        3440000090720201811000000000000    00000000000000000000000
001035151DNI 012692746MORENO,ESTELA DEL ALBA        3140000186700201811000000000000    00000000000000000000000
001035171DNI 017308743BUSTOS,JUAN JOSE              3440000130012201811000000000000    00000000000000000000000
001035171DNI 017308743BUSTOS,JUAN JOSE              3140000143100201811000000000000    00000000000000000000000
001035181DNI 011115435GALCERAN, JOSE MANUEL         3440000325623201811000000000000    00000000000000000000000
001035181DNI 011115435GALCERAN, JOSE MANUEL         3140000197500201811000000000000    00000000000000000000000
001035191DNI 016970620LARA,ESTEBAN MARINO           3440000255563201811000000000000    00000000000000000000000
001035191DNI 016970620LARA,ESTEBAN MARINO           3140000361700201811000000000000    00000000000000000000000
001035201DNI 017803725DIAZ RUIZ, NORMA GUADALUPE    3140000124600201811000000000000    00000000000000000000000
001035221DNI 017680248CABRERA, HECTOR ALBERTO       3440000186448201811000000000000    00000000000000000000000
001035221DNI 017680248CABRERA, HECTOR ALBERTO       3140000267400201811000000000000    00000000000000000000000
001035231DNI 012853303ALBORNOZ,EDILBERTO REY        3440000036809201811000000000000    00000000000000000000000
001035231DNI 012853303ALBORNOZ,EDILBERTO REY        3140000301600201811000000000000    00000000000000000000000
001035281DNI 020247932MERCADO, MARCELA ROSA         3440001035171201811000000000000    00000000000000000000000
001035281DNI 020247932MERCADO, MARCELA ROSA         3140000186700201811000000000000    00000000000000000000000
001035311DNI 017963775MAMANI, MOISES                3440000735870201811000000000000    00000000000000000000000
001035311DNI 017963775MAMANI, MOISES                3140000133500201811000000000000    00000000000000000000000
001035341DNI 017235828CORIMAYO,TEONILA              3440000106147201811000000000000    00000000000000000000000
001035341DNI 017235828CORIMAYO,TEONILA              3140000187900201811000000000000    00000000000000000000000
001035351DNI 011283984RIVERA Z.DE SANCHEZ,ESPERANZA 3140000186700201811000000000000    00000000000000000000000
001035371DNI 017649426VACA, WALTER ORLANDO          3440000094572201811000000000000    00000000000000000000000
001035371DNI 017649426VACA, WALTER ORLANDO          3140000221100201811000000000000    00000000000000000000000
001035391DNI 018019935GONZALEZ, JAVIER OMAR         3440000019907201811000000000000    00000000000000000000000
001035391DNI 018019935GONZALEZ, JAVIER OMAR         3140000219700201811000000000000    00000000000000000000000
001035401DNI 011282082LASPIUR,RENE EDUARDO          3440000468260201811000000000000    00000000000000000000000
001035401DNI 011282082LASPIUR,RENE EDUARDO          3140000186700201811000000000000    00000000000000000000000
001035411DNI 020399467GONZA,MARIA FERNANDA          3440000752541201811000000000000    00000000000000000000000
001035411DNI 020399467GONZA,MARIA FERNANDA          3140000133500201811000000000000    00000000000000000000000
001035421DNI 011834504ALBORNOZ DE CARRIZO,ANA ESTER 3440000311870201811000000000000    00000000000000000000000
001035421DNI 011834504ALBORNOZ DE CARRIZO,ANA ESTER 3140000186700201811000000000000    00000000000000000000000
001035431DNI 017572173CODINA,HUGO OSCAR             3440000321007201811000000000000    00000000000000000000000
001035431DNI 017572173CODINA,HUGO OSCAR             3140000234800201811000000000000    00000000000000000000000
001035451DNI 017355436FLORES,HECTOR ALFREDO         3440000146261201811000000000000    00000000000000000000000
001035451DNI 017355436FLORES,HECTOR ALFREDO         3140000337000201811000000000000    00000000000000000000000
001035452DNI 017355436FLORES, HECTOR ALFREDO        3140000066500201811000000000000    00000000000000000000000
001035461DNI 020399310PATAGUA ORQUERA, LIDIA BEATRIZ3440001212365201811000000000000    00000000000000000000000
001035461DNI 020399310PATAGUA ORQUERA, LIDIA BEATRIZ3140000160900201811000000000000    00000000000000000000000
001035471DNI 018474408GUTIERREZ MADARIAGA,RAMIRO    3440000047938201811000000000000    00000000000000000000000
001035471DNI 018474408GUTIERREZ MADARIAGA,RAMIRO    3140000175300201811000000000000    00000000000000000000000
001035491DNI 013118936SANGUINO,DARIO ARNALDO        3440000212387201811000000000000    00000000000000000000000
001035491DNI 013118936SANGUINO,DARIO ARNALDO        3140000186600201811000000000000    00000000000000000000000
001035511DNI 017581058LOBO,LUIS ANTONIO             3440000243025201811000000000000    00000000000000000000000
001035511DNI 017581058LOBO,LUIS ANTONIO             3140000160900201811000000000000    00000000000000000000000
001035521DNI 017582191LERA,CARLOS ALBERTO           3440000222363201811000000000000    00000000000000000000000
001035521DNI 017582191LERA,CARLOS ALBERTO           3140000211600201811000000000000    00000000000000000000000
001035531DNI 012959573GASPAR, WALTER BERNABE        3140000188600201811000000000000    00000000000000000000000
001035541DNI 013414387GIL, MIRIAN NORMA             3440000185672201811000000000000    00000000000000000000000
001035541DNI 013414387GIL, MIRIAN NORMA             3140000216100201811000000000000    00000000000000000000000
001035551DNI 013126411DE LA CUESTA,RAQUEL MERCEDES  3440000078879201811000000000000    00000000000000000000000
001035551DNI 013126411DE LA CUESTA,RAQUEL MERCEDES  3140000245700201811000000000000    00000000000000000000000
001035561DNI 018229803ECHENIQUE DE TEN, GABRIELA S. 3440001258503201811000000000000    00000000000000000000000
001035561DNI 018229803ECHENIQUE DE TEN, GABRIELA S. 3140000186100201811000000000000    00000000000000000000000
001035591DNI 013577982ARCE,HECTOR EDUARDO           3140000243400201811000000000000    00000000000000000000000
001035601DNI 013577893MU벮Z,ANA MARIA SUSANA        3140000216200201811000000000000    00000000000000000000000
001035631DNI 017441595CISTERNA, FAUSTO OMAR         3440000010757201811000000000000    00000000000000000000000
001035631DNI 017441595CISTERNA, FAUSTO OMAR         3140000186100201811000000000000    00000000000000000000000
001035651DNI 012649310BULIUBASICH DE S., EMILIANA C.3140000294600201811000000000000    00000000000000000000000
001035661DNI 017354589ORNASS, VICTORIA REGINA       3440000340307201811000000000000    00000000000000000000000
001035661DNI 017354589ORNASS, VICTORIA REGINA       3140000193400201811000000000000    00000000000000000000000
001035671DNI 016169910ROSALES, JUAN CARLOS          3440000205334201811000000000000    00000000000000000000000
001035671DNI 016169910ROSALES, JUAN CARLOS          3140000216100201811000000000000    00000000000000000000000
001035672DNI 016169910ROSALES, JUAN CARLOS          3140000061200201811000000000000    00000000000000000000000
001035681DNI 016753269NU벤Z, HECTOR ALEJANDRO       3140000133100201811000000000000    00000000000000000000000
001035721DNI 013520652ARIAS DE CHAILE, ELODIA MONICA3440000165816201811000000000000    00000000000000000000000
001035721DNI 013520652ARIAS DE CHAILE, ELODIA MONICA3140000223400201811000000000000    00000000000000000000000
001035731DNI 014484717JAVI DE ARROYO, VERONICA M.   3140000201300201811000000000000    00000000000000000000000
001035733DNI 014484717JAVI DE ARROYO, VERONICA M.   3140000058300201811000000000000    00000000000000000000000
001035781DNI 014488227MONTERO LAROCCA,MARIA TERESA  3440000555125201811000000000000    00000000000000000000000
001035781DNI 014488227MONTERO LAROCCA,MARIA TERESA  3140000201300201811000000000000    00000000000000000000000
001035782DNI 014488227MONTERO LAROCCA,MARIA TERESA  3140000058300201811000000000000    00000000000000000000000
001035821DNI 018627982LOPEZ, JORGE FIDEL            3440000276669201811000000000000    00000000000000000000000
001035821DNI 018627982LOPEZ, JORGE FIDEL            3140000177200201811000000000000    00000000000000000000000
001035831DNI 014303299SANGARY, RAQUEL EDITH         3440000545897201811000000000000    00000000000000000000000
001035831DNI 014303299SANGARY, RAQUEL EDITH         3140000160900201811000000000000    00000000000000000000000
001035841DNI 016538707BERGAGNA DE PARRA, MARIA A.   3440000144795201811000000000000    00000000000000000000000
001035841DNI 016538707BERGAGNA DE PARRA, MARIA A.   3140000081300201811000000000000    00000000000000000000000
001035842DNI 016538707BERGAGNA DE PARRA, MARIA A.   3140000110600201811000000000000    00000000000000000000000
001035843DNI 016538707BERGAGNA DE PARRA, MARIA A.   3140000051800201811000000000000    00000000000000000000000
001035844DNI 016538707BERGAGNA DE PARRA, MARIA A.   3140000051800201811000000000000    00000000000000000000000
001035891DNI 014488305ASTORGA LOPEZ, JOSE RAMON     3140000121000201811000000000000    00000000000000000000000
001035892DNI 014488305ASTORGA LOPEZ, JOSE RAMON     3440000265441201811000000000000    00000000000000000000000
001035892DNI 014488305ASTORGA LOPEZ, JOSE RAMON     3140000080700201811000000000000    00000000000000000000000
001035961DNI 016734560DEKAINE, STELLA RUTH          3440000346640201811000000000000    00000000000000000000000
001035961DNI 016734560DEKAINE, STELLA RUTH          3140000160900201811000000000000    00000000000000000000000
001036001DNI 014489091BUSDRAGO, FREDY OMAR          3440000368855201811000000000000    00000000000000000000000
001036001DNI 014489091BUSDRAGO, FREDY OMAR          3140000080700201811000000000000    00000000000000000000000
001036002DNI 014489091BUSDRAGO, FREDY OMAR          3140000080700201811000000000000    00000000000000000000000
001036011DNI 014708693APARICIO DE ALURRALDE,SONIA N.3140000136300201811000000000000    00000000000000000000000
001036061DNI 014977421CHOROLQUE DE DURAN, ELENA E.  3440000208620201811000000000000    00000000000000000000000
001036061DNI 014977421CHOROLQUE DE DURAN, ELENA E.  3140000266500201811000000000000    00000000000000000000000
001036062DNI 014977421CHOROLQUE DE DURAN, ELENA E.  3140000066800201811000000000000    00000000000000000000000
001036121DNI 020608760LOPEZ, ALBA HAYDEE            3440000192651201811000000000000    00000000000000000000000
001036121DNI 020608760LOPEZ, ALBA HAYDEE            3140000171200201811000000000000    00000000000000000000000
001036171DNI 014865079GALLI,VERONICA CECILIA        3140000118400201811000000000000    00000000000000000000000
001036191DNI 018433544MOLINA, JOSE RAMON            3440000016025201811000000000000    00000000000000000000000
001036191DNI 018433544MOLINA, JOSE RAMON            3140000396400201811000000000000    00000000000000000000000
001036201DNI 014709843TAMBOSCO DE SANTILLAN, SILVINA3440000202255201811000000000000    00000000000000000000000
001036201DNI 014709843TAMBOSCO DE SANTILLAN, SILVINA3140000154200201811000000000000    00000000000000000000000
001036341DNI 016128558CAMPASTRO DE ZARATE, MIRIAM C.3140000156500201811000000000000    00000000000000000000000
001036351DNI 016142653ZURRO, OSCAR MARCELO          3440000051408201811000000000000    00000000000000000000000
001036351DNI 016142653ZURRO, OSCAR MARCELO          3140000133100201811000000000000    00000000000000000000000
001036371DNI 017581261DRAGONE,CRISTINA SUSANA       3140000088700201811000000000000    00000000000000000000000
001036401DNI 014489916ABAN, GRACIELA ELIZABETH      3140000126600201811000000000000    00000000000000000000000
001036402DNI 014489916ABAN, GRACIELA ELIZABETH      3140000056000201811000000000000    00000000000000000000000
001036411DNI 012019225JOSE, SERGIO RAUL             3440000209753201811000000000000    00000000000000000000000
001036411DNI 012019225JOSE, SERGIO RAUL             3140000121000201811000000000000    00000000000000000000000
001036412DNI 012019225JOSE, SERGIO RAUL             3140000080700201811000000000000    00000000000000000000000
001036413DNI 012019225JOSE, SERGIO RAUL             3140000004800201811000000000000    00000000000000000000000
001036431DNI 013414186FLORES, JORGE EDUARDO         3140000216100201811000000000000    00000000000000000000000
001036441DNI 012247593ELIAS DE DIP, LIDIA ROSA      3440000277591201811000000000000    00000000000000000000000
001036441DNI 012247593ELIAS DE DIP, LIDIA ROSA      3140000273400201811000000000000    00000000000000000000000
001036442DNI 012247593ELIAS DE DIP, LIDIA ROSA      3140000068500201811000000000000    00000000000000000000000
001036451DNI 011539631DIB, ALICIA RINA              3440000232605201811000000000000    00000000000000000000000
001036451DNI 011539631DIB, ALICIA RINA              3140000154200201811000000000000    00000000000000000000000
001036481DNI 016883250GUTIERREZ, EDIT ELIZABETH     3440000162126201811000000000000    00000000000000000000000
001036481DNI 016883250GUTIERREZ, EDIT ELIZABETH     3140000133100201811000000000000    00000000000000000000000
001036521LE  008234343BUHLER, WALTER NEIL           3440000193563201811000000000000    00000000000000000000000
001036521LE  008234343BUHLER, WALTER NEIL           3140000196100201811000000000000    00000000000000000000000
001036522LE  008234343BUHLER, WALTER NEIL           3140000000000201811000000000000    00000000000000000000000
001036561DNI 010792517KAIRUZ, HUGO OSCAR            3140000108300201811000000000000    00000000000000000000000
001036562DNI 010792517KAIRUZ, HUGO OSCAR            3140000108300201811000000000000    00000000000000000000000
001036563DNI 010792517KAIRUZ, HUGO OSCAR            3140000053800201811000000000000    00000000000000000000000
001036571DNI 014170197MENDEZ, EUSEBIO ATANACIO      3140000402500201811000000000000    00000000000000000000000
001036601DNI 018653277ALARCON APARICIO, ANGELICA    3440000298815201811000000000000    00000000000000000000000
001036601DNI 018653277ALARCON APARICIO, ANGELICA    3140000216100201811000000000000    00000000000000000000000
001036621DNI 010053086SALUSSO, MARIA MONICA         3440000185284201811000000000000    00000000000000000000000
001036621DNI 010053086SALUSSO, MARIA MONICA         3140000263100201811000000000000    00000000000000000000000
001036731DNI 016307436DIP, SILVANA BEATRIZ          3140000133100201811000000000000    00000000000000000000000
001036741DNI 018020638VILLANUEVA, BARBARA MAGDALENA 3440000895221201811000000000000    00000000000000000000000
001036741DNI 018020638VILLANUEVA, BARBARA MAGDALENA 3140000220700201811000000000000    00000000000000000000000
001036742DNI 018020638VILLANUEVA, BARBARA MAGDALENA 3140000047900201811000000000000    00000000000000000000000
001036761DNI 016128548CONDORI, MIGUEL ANGEL         3440000102599201811000000000000    00000000000000000000000
001036761DNI 016128548CONDORI, MIGUEL ANGEL         3140000232600201811000000000000    00000000000000000000000
001036762DNI 016128548CONDORI, MIGUEL ANGEL         3140000065900201811000000000000    00000000000000000000000
